:100000000C942A000C9428040C945B040C948E0429
:100010000C943C000C943C000C943C000C943C0070
:100020000C943C000C943C000C945B020C943C003F
:100030000C943C000C943C000C943C000C943C0050
:100040000C943C000C943C000C943C000C943C0040
:100050000C943C0011241FBECFE5D8E0DEBFCDBF1D
:1000600010E0A0E6B0E001C01D92A838B107E1F7AA
:100070000E949C080C9473090C940000DF93CF93AA
:10008000CDB7DEB784EA90E00E9449020E948E025A
:100090000E941402CF91DF910895DF93CF9300D097
:1000A00000D000D0CDB7DEB789837B836A835D83C0
:1000B0004C832E838981282F30E0C901880F991F36
:1000C000820F931F880F991FFC01EC59FF4F8E81FF
:1000D00080838981282F30E0C901880F991F820F02
:1000E000931F880F991FFC01E05AFF4F8A819B8163
:1000F000918380838981282F30E0C901880F991F5F
:10010000820F931F0196880F991FFC01E05AFF4F41
:100110008C819D81918380838981282F30E0C90162
:10012000880F991F820F931F880F991FFC01EB59AD
:10013000FF4F82E0808326960FB6F894DEBF0FBE95
:10014000CDBFCF91DF910895DF93CF930F92CDB7BD
:10015000DEB780917E0090917F00019690937F00A2
:1001600080937E001982BDC040917E0050917F0037
:100170008981282F30E0C901880F991F820F931FB2
:10018000880F991FFC01E05AFF4F20813181CA017D
:10019000B9010E945F09009709F085C08981282F65
:1001A00030E0C901880F991F820F931F880F991F94
:1001B000FC01EB59FF4F8081823009F074C08981C6
:1001C000282F30E0C901880F991F820F931F880FD5
:1001D000991FFC01EC59FF4F8081882309F063C00F
:1001E0008981282F30E0C901880F991F820F931F42
:1001F0000196880F991FFC01E05AFF4F8081918181
:10020000009709F46BC08981282F30E0C901880F5D
:10021000991F820F931F880F991FFC01EB59FF4F05
:1002200081E080838981282F30E0C901880F991FE0
:10023000820F931F0196880F991FFC01E05AFF4F10
:100240000190F081E02D09958981482F50E0898146
:10025000282F30E0C901880F991F820F931F880F44
:10026000991FFC01E05AFF4F80819181282F215076
:10027000CA01880F991F840F951F880F991FFC01D1
:10028000EC59FF4F20838981282F30E0C901880F66
:10029000991F820F931F880F991FFC01EB59FF4F85
:1002A00082E080831BC08981282F30E0C901880F3C
:1002B000991F820F931F880F991FFC01EC59FF4F64
:1002C0008081482F4150C901880F991F820F931FC9
:1002D000880F991FFC01EC59FF4F408389818F5F84
:1002E00089838981843008F43FCF0F90CF91DF91CB
:1002F0000895DF93CF9300D0CDB7DEB78A831982FC
:100300008A81282F30E0C901880F991F820F931F1F
:10031000880F991FFC01EB59FF4F8081813079F4E0
:100320008A81282F30E0C901880F991F820F931FFF
:10033000880F991FFC01EB59FF4F108202C081E02A
:10034000898389810F900F90CF91DF910895DF937A
:10035000CF9300D0CDB7DEB78A8319828A81282F48
:1003600030E0C901880F991F820F931F880F991FD2
:10037000FC01EB59FF4F8081882381F08A81282F6F
:1003800030E0C901880F991F820F931F880F991FB2
:10039000FC01EB59FF4F82E0808302C081E089833A
:1003A00089810F900F90CF91DF910895DF93CF93C4
:1003B00000D0CDB7DEB78A8319828A81282F30E03A
:1003C000C901880F991F820F931F880F991FFC0185
:1003D000EB59FF4F8081833001F18A81282F30E073
:1003E000C901880F991F820F931F880F991FFC0165
:1003F000EB59FF4F83E080838A81282F30E0C901C9
:10040000880F991F820F931F0196880F991FFC0177
:10041000E05AFF4F1182108202C081E089830F9061
:100420000F90CF91DF910895DF93CF93CDB7DEB7D3
:10043000A3E5B0E0E3E5F0E080818F7B8C93A3E55A
:10044000B0E0E3E5F0E0808188608C93A3E5B0E064
:10045000E3E5F0E080818B7F8C93A3E5B0E0E3E5FA
:10046000F0E0808182608C93A3E5B0E0E3E5F0E00A
:10047000808181608C93ECE5F0E08DE78083A9E5D5
:10048000B0E0E9E5F0E0808182608C93CF91DF916C
:100490000895DF93CF9300D0CDB7DEB79A838983D9
:1004A00089819A8190938100809380000F900F90B2
:1004B000CF91DF9108951F920F920FB60F921124E2
:1004C0002F933F934F935F936F937F938F939F935C
:1004D000AF93BF93EF93FF93DF93CF93CDB7DEB787
:1004E0008091800090918100009729F0E091800038
:1004F000F09181000995CF91DF91FF91EF91BF912C
:10050000AF919F918F917F916F915F914F913F91AB
:100510002F910F900FBE0F901F901895DF93CF93E0
:10052000CDB7DEB7AFE5B0E0EFE5F0E08081806801
:100530008C93CF91DF910895DF93CF93CDB7DEB742
:10054000AFE5B0E0EFE5F0E080818F778C93CF915D
:10055000DF910895DF93CF93CDB7DEB7ABE5B0E081
:10056000EBE5F0E0808180688C9383E062E041E01D
:100570000E94C104A5E5B0E0E5E5F0E08081886077
:100580008C93A5E5B0E0E5E5F0E080818B7F8C936E
:10059000CF91DF910895DF93CF93CDB7DEB72A9740
:1005A0000FB6F894DEBF0FBECDBF89836A83898101
:1005B000282F30E03A87298789859A8581309105EF
:1005C00009F46DC029853A852230310509F4C9C086
:1005D00089859A85009709F0E9C0ABE5B0E0EBE5C5
:1005E000F0E0808180648C938A81282F30E0388706
:1005F0002F838F8198858130910521F12F81388556
:10060000223031052CF48F819885009761F0CEC09F
:100610002F8138852230310521F18F8198858430F2
:10062000910571F1C3C0A5E5B0E0E5E5F0E080819A
:1006300082608C93A5E5B0E0E5E5F0E080818E7FF7
:100640008C93B4C0A5E5B0E0E5E5F0E08081826080
:100650008C93A5E5B0E0E5E5F0E0808181608C93C6
:10066000A5C0A5E5B0E0E5E5F0E080818D7F8C9345
:10067000A5E5B0E0E5E5F0E080818E7F8C9396C043
:10068000A5E5B0E0E5E5F0E080818D7F8C93A5E500
:10069000B0E0E5E5F0E0808181608C9387C0ABE558
:1006A000B0E0EBE5F0E0808180688C938A81282FB0
:1006B00030E03E832D838D819E818130910521F133
:1006C0002D813E81223031052CF48D819E81009751
:1006D00061F06CC02D813E812230310521F18D8188
:1006E0009E818430910571F161C0A5E5B0E0E5E53A
:1006F000F0E0808188608C93A5E5B0E0E5E5F0E06E
:1007000080818B7F8C9352C0A5E5B0E0E5E5F0E0F9
:10071000808188608C93A5E5B0E0E5E5F0E080811C
:1007200084608C9343C0A5E5B0E0E5E5F0E080810E
:10073000877F8C93A5E5B0E0E5E5F0E080818B7FD5
:100740008C9334C0A5E5B0E0E5E5F0E08081877FDB
:100750008C93A5E5B0E0E5E5F0E0808184608C93C2
:1007600025C0ABE5B0E0EBE5F0E0808180628C93E2
:100770008A81282F30E03C832B838B819C810097DA
:1007800031F02B813C812130310549F00FC0A4E5C7
:10079000B0E0E4E5F0E080818F7B8C9307C0A4E5B6
:1007A000B0E0E4E5F0E0808180648C932A960FB697
:1007B000F894DEBF0FBECDBFCF91DF910895DF93D8
:1007C000CF9300D00F92CDB7DEB789838981282FD0
:1007D00030E03B832A838A819B818130910589F0B7
:1007E0002A813B8122303105A1F08A819B810097CB
:1007F000B9F4ABE5B0E0EBE5F0E080818F7B8C9362
:100800000FC0ABE5B0E0EBE5F0E080818F778C9333
:1008100007C0ABE5B0E0EBE5F0E080818F7D8C9325
:100820000F900F900F90CF91DF910895DF93CF93AA
:1008300000D0CDB7DEB79A83898389819A8190935E
:100840008300809382000F900F90CF91DF910895E5
:100850001F920F920FB60F9211242F933F934F9335
:100860005F936F937F938F939F93AF93BF93EF9318
:10087000FF93DF93CF93CDB7DEB780918200909145
:100880008300009729F0E0918200F09183000995A0
:10089000CF91DF91FF91EF91BF91AF919F918F9198
:1008A0007F916F915F914F913F912F910F900FBE6C
:1008B0000F901F9018951F920F920FB60F92112450
:1008C0002F933F934F935F936F937F938F939F9358
:1008D000AF93BF93EF93FF93DF93CF93CDB7DEB783
:1008E0008091820090918300009729F0E09182002E
:1008F000F09183000995CF91DF91FF91EF91BF9126
:10090000AF919F918F917F916F915F914F913F91A7
:100910002F910F900FBE0F901F9018951F920F925E
:100920000FB60F9211242F933F934F935F936F93C2
:100930007F938F939F93AF93BF93EF93FF93DF9337
:10094000CF93CDB7DEB7809182009091830000975E
:1009500029F0E0918200F09183000995CF91DF9119
:10096000FF91EF91BF91AF919F918F917F916F9187
:100970005F914F913F912F910F900FBE0F901F905D
:100980001895DF93CF93CDB7DEB729970FB6F894BC
:10099000DEBF0FBECDBF89836A834B8389818430DC
:1009A00008F0F6C08A81883008F0F2C08B81282FC9
:1009B00030E03987288788859985009739F0288520
:1009C00039852130310509F475C0E2C08981282FAD
:1009D00030E03F832E838E819F818130910559F1D4
:1009E0002E813F81223031052CF48E819F8100972A
:1009F00069F0CEC02E813F812230310589F18E8190
:100A00009F818330910509F440C0C2C0ABE3B0E0E0
:100A1000EBE3F0E08081482F8A81282F30E081E0ED
:100A200090E0022E02C0880F991F0A94E2F7809589
:100A300084238C93ADC0A8E3B0E0E8E3F0E08081CC
:100A4000482F8A81282F30E081E090E0022E02C0FA
:100A5000880F991F0A94E2F7809584238C9398C09D
:100A6000A5E3B0E0E5E3F0E08081482F8A81282FFC
:100A700030E081E090E0022E02C0880F991F0A94B6
:100A8000E2F7809584238C9383C0A2E3B0E0E2E395
:100A9000F0E08081482F8A81282F30E081E090E0CB
:100AA000022E02C0880F991F0A94E2F780958423D2
:100AB0008C936EC08981282F30E03D832C838C81FC
:100AC0009D818130910549F12C813D812230310594
:100AD0002CF48C819D81009761F05AC02C813D815E
:100AE0002230310571F18C819D8183309105E9F1CE
:100AF0004FC0ABE3B0E0EBE3F0E08081482F8A81A8
:100B0000282F30E081E090E0022E02C0880F991F6C
:100B10000A94E2F7842B8C933BC0A8E3B0E0E8E3AF
:100B2000F0E08081482F8A81282F30E081E090E03A
:100B3000022E02C0880F991F0A94E2F7842B8C932F
:100B400027C0A5E3B0E0E5E3F0E08081482F8A818B
:100B5000282F30E081E090E0022E02C0880F991F1C
:100B60000A94E2F7842B8C9313C0A2E3B0E0E2E393
:100B7000F0E08081482F8A81282F30E081E090E0EA
:100B8000022E02C0880F991F0A94E2F7842B8C93DF
:100B900029960FB6F894DEBF0FBECDBFCF91DF917F
:100BA0000895DF93CF93CDB7DEB729970FB6F894AA
:100BB000DEBF0FBECDBF89836A834B8389818430BA
:100BC00008F0F6C08A81883008F0F2C08B81282FA7
:100BD00030E03987288788859985009739F02885FE
:100BE00039852130310509F475C0E2C08981282F8B
:100BF00030E03F832E838E819F818130910559F1B2
:100C00002E813F81223031052CF48E819F81009707
:100C100069F0CEC02E813F812230310589F18E816D
:100C20009F818330910509F440C0C2C0AAE3B0E0BF
:100C3000EAE3F0E08081482F8A81282F30E081E0CC
:100C400090E0022E02C0880F991F0A94E2F7809567
:100C500084238C93ADC0A7E3B0E0E7E3F0E08081AC
:100C6000482F8A81282F30E081E090E0022E02C0D8
:100C7000880F991F0A94E2F7809584238C9398C07B
:100C8000A4E3B0E0E4E3F0E08081482F8A81282FDC
:100C900030E081E090E0022E02C0880F991F0A9494
:100CA000E2F7809584238C9383C0A1E3B0E0E1E375
:100CB000F0E08081482F8A81282F30E081E090E0A9
:100CC000022E02C0880F991F0A94E2F780958423B0
:100CD0008C936EC08981282F30E03D832C838C81DA
:100CE0009D818130910549F12C813D812230310572
:100CF0002CF48C819D81009761F05AC02C813D813C
:100D00002230310571F18C819D8183309105E9F1AB
:100D10004FC0AAE3B0E0EAE3F0E08081482F8A8187
:100D2000282F30E081E090E0022E02C0880F991F4A
:100D30000A94E2F7842B8C933BC0A7E3B0E0E7E38F
:100D4000F0E08081482F8A81282F30E081E090E018
:100D5000022E02C0880F991F0A94E2F7842B8C930D
:100D600027C0A4E3B0E0E4E3F0E08081482F8A816B
:100D7000282F30E081E090E0022E02C0880F991FFA
:100D80000A94E2F7842B8C9313C0A1E3B0E0E1E373
:100D9000F0E08081482F8A81282F30E081E090E0C8
:100DA000022E02C0880F991F0A94E2F7842B8C93BD
:100DB00029960FB6F894DEBF0FBECDBFCF91DF915D
:100DC0000895DF93CF9300D000D00F92CDB7DEB758
:100DD0008A836B838A81282F30E03D832C838C812A
:100DE0009D818130910539F12C813D812230310581
:100DF0002CF48C819D81009761F052C02C813D8143
:100E00002230310551F18C819D8183309105B9F1FA
:100E100047C0E9E3F0E08081482F8B81282F30E044
:100E200081E090E0022E02C0880F991F0A94E2F739
:100E30008423898335C0E6E3F0E08081482F8B81ED
:100E4000282F30E081E090E0022E02C0880F991F29
:100E50000A94E2F78423898323C0E3E3F0E08081EE
:100E6000482F8B81282F30E081E090E0022E02C0D5
:100E7000880F991F0A94E2F78423898311C0E0E365
:100E8000F0E08081482F8B81282F30E081E090E0D6
:100E9000022E02C0880F991F0A94E2F784238983E7
:100EA00089810F900F900F900F900F90CF91DF914D
:100EB0000895DF93CF9300D000D0CDB7DEB78983FC
:100EC0006A838981282F30E03C832B838B819C812E
:100ED00081309105D1F02B813C81223031052CF4F9
:100EE0008B819C81009761F01EC02B813C81223058
:100EF000310581F08B819C818330910581F013C095
:100F0000EBE3F0E08A8180830EC0E8E3F0E08A81C1
:100F1000808309C0E5E3F0E08A81808304C0E2E3D6
:100F2000F0E08A8180830F900F900F900F90CF9107
:100F3000DF910895DF93CF9300D000D0CDB7DEB717
:100F400089836A838981282F30E03C832B838B81BE
:100F50009C8181309105D1F02B813C81223031057B
:100F60002CF48B819C81009761F01EC02B813C8109
:100F70002230310581F08B819C818330910581F095
:100F800013C0EAE3F0E08A8180830EC0E7E3F0E07B
:100F90008A81808309C0E4E3F0E08A81808304C011
:100FA000E1E3F0E08A8180830F900F900F900F9023
:100FB000CF91DF910895DF93CF9300D000D0CDB7CC
:100FC000DEB78A838A81282F30E03C832B838B8194
:100FD0009C8181309105D1F02B813C8122303105FB
:100FE0002CF48B819C81009761F01EC02B813C8189
:100FF0002230310581F08B819C818330910581F015
:1010000013C0E9E3F0E0808189830EC0E6E3F0E0FD
:101010008081898309C0E3E3F0E08081898304C093
:10102000E0E3F0E08081898389810F900F900F9039
:101030000F90CF91DF910895DF93CF93CDB7DEB7B7
:1010400080E060E00E949A07A7E2B0E0E7E2F0E00B
:10105000808180648C93A7E2B0E0E7E2F0E08081D9
:101060008F778C93A7E2B0E0E7E2F0E080818F7D9C
:101070008C93A6E2B0E0E6E2F0E080818F7D8C9375
:10108000A6E2B0E0E6E2F0E080818873806C8C93A9
:10109000A6E2B0E0E6E2F0E08081877F8C93A6E2F2
:1010A000B0E0E6E2F0E0808180688C93CF91DF9140
:1010B0000895DF93CF9300D0CDB7DEB789838981C0
:1010C0008830D8F4A7E2B0E0E7E2F0E08081982F22
:1010D000907E8981892B8C93A6E2B0E0E6E2F0E075
:1010E000808180648C93E6E2F0E08081A6E2B0E04B
:1010F000E6E2F0E0808180618C93E4E2F0E08081C0
:1011000091810F900F90CF91DF910895DF93CF934E
:101110000F92CDB7DEB789830F90CF91DF910895FD
:10112000DF93CF9300D0CDB7DEB79A8389830F903A
:101130000F90CF91DF910895DF93CF930F92CDB7AA
:10114000DEB783E0898380E060E041E00E94D10562
:1011500080E061E041E00E94D10580E062E041E092
:101160000E94D10580E067E041E00E94D10523EEB6
:1011700038E080E068EE73E0A90121E00E944D00B4
:1011800022E039E081E060ED77E0A90122E00E94F1
:101190004D0021E239E082E068EB7BE0A90123E029
:1011A0000E944D0020E439E083E068EB7BE0A90178
:1011B00024E00E944D0089810E94D6010E943E00D9
:1011C0000E948E02FFCFDF93CF93CDB7DEB7809121
:1011D0008400882359F49091840080E060E0492FD6
:1011E0000E94C10481E08093840009C09091840032
:1011F00080E060E0492F0E94C10410928400CF91EA
:10120000DF910895DF93CF93CDB7DEB7809185004E
:10121000882359F49091850080E061E0492F0E9475
:10122000C10481E08093850009C09091850080E031
:1012300061E0492F0E94C10410928500CF91DF9197
:101240000895DF93CF93CDB7DEB7809186008823D2
:1012500059F49091860080E062E0492F0E94C10419
:1012600081E08093860009C09091860080E062E072
:10127000492F0E94C10410928600CF91DF910895FA
:10128000DF93CF93CDB7DEB780918700882359F4E1
:101290009091870080E067E0492F0E94C10481E0BF
:1012A0008093870009C09091870080E067E0492F14
:1012B0000E94C10410928700CF91DF910895AA1B6C
:1012C000BB1B51E107C0AA1FBB1FA617B70710F031
:1012D000A61BB70B881F991F5A95A9F78095909563
:0A12E000BC01CD010895F894FFCF82
:00000001FF
