:100000000C942A000C9447000C9447000C94470071
:100010000C9447000C9447000C94C5310C94A00933
:100020000C9447000C9447000C9447000C94470034
:100030000C9447000C9447000C9447000C94470024
:100040000C9447000C9447000C9447000C94470014
:100050000C94470011241FBECFE5D8E0DEBFCDBF12
:1000600010E0A0E6B0E0E6E4FCE702C005900D92E7
:10007000AE36B107D9F716E0AEE6B0E001C01D928A
:10008000A53BB107E1F70E940A3D0C94213E0C9478
:100090000000EF92FF920F931F937B018C0120E0F1
:1000A00030E040E05FE40E94F50388238CF0C80153
:1000B000B70120E030E040E05FE40E94C1010E940F
:1000C00055049B01AC01205030404040504806C0D0
:1000D000C801B7010E9455049B01AC01B901CA01D6
:1000E0001F910F91FF90EF900895A0E0B0E0EBE733
:1000F000F0E00C94A93DDC012B01FA019C919230B7
:1001000008F439C1EB018881823008F433C194309E
:1001100069F4843009F02FC111969C91119789815F
:10012000981709F428C1A5E6B0E025C1843009F488
:1001300021C18230A9F4923009F01DC19A01AD01AC
:1001400088E0EA010990AE01E90109929E0181501F
:10015000C1F7E201898111969C918923818308C1AD
:10016000923009F407C112962D903C901397EB0141
:100170008A819B811496AD90BD90CD90DC901797AD
:10018000EC80FD800E811F819101281B390BB90184
:1001900037FF04C066277727621B730B6032710537
:1001A0000CF061C0121613066CF537014801062EDB
:1001B00004C096948794779467940A94D2F721E0C8
:1001C00030E040E050E004C0220F331F441F551FB1
:1001D0006A95D2F721503040404050402E213F21B7
:1001E00040235123211531054105510521F021E01E
:1001F00030E040E050E079018A01E628F72808293C
:1002000019293CC0232BD1F1260E371E350146019A
:10021000062E04C096948794779467940A94D2F734
:1002200021E030E040E050E004C0220F331F441FC3
:10023000551F6A95D2F721503040404050402A2146
:100240003B214C215D21211531054105510521F04E
:1002500021E030E040E050E059016A01A628B728CB
:10026000C828D9280BC0821593052CF01C01AA249C
:10027000BB24650103C0EE24FF24870111969C91E5
:10028000D20111968C91981709F445C0992339F041
:10029000A80197012A193B094C095D0906C0A6016E
:1002A00095012E193F09400B510B57FD08C01182D3
:1002B0003382228224833583468357831DC081E0A5
:1002C00081833382228288279927DC01821B930B4A
:1002D000A40BB50B84839583A683B7830DC0220F2F
:1002E000331F441F551F24833583468357838281E0
:1002F000938101979383828324813581468157813D
:10030000DA01C9010197A109B1098F5F9F4FAF4F72
:10031000BF4328F30BC0918333822282EA0CFB1C7B
:100320000C1D1D1DE482F5820683178383E0808304
:10033000248135814681578157FF1AC0C901AA27F8
:1003400097FDA095BA2F81709070A070B0705695EF
:10035000479537952795822B932BA42BB52B848318
:100360009583A683B7838281938101969383828349
:10037000DF0101C0D201CD01CDB7DEB7E2E10C94BF
:10038000C53DA0E2B0E0E7ECF1E00C94B53D698337
:100390007A838B839C832D833E834F835887E9E048
:1003A000EE2EF12CEC0EFD1ECE010196B7010E943F
:1003B0007E058E010F5E1F4FCE010596B8010E948B
:1003C0007E058A8991E089278A8BC701B801AE0131
:1003D000475E5F4F0E9475000E94A904A096E6E068
:1003E0000C94D13DA0E2B0E0E8EFF1E00C94B53D13
:1003F00069837A838B839C832D833E834F835887C5
:10040000F9E0EF2EF12CEC0EFD1ECE010196B701A6
:100410000E947E058E010F5E1F4FCE010596B8012A
:100420000E947E05C701B801AE01475E5F4F0E9482
:1004300075000E94A904A096E6E00C94D13DA0E2CC
:10044000B0E0E5E2F2E00C94A93D69837A838B8306
:100450009C832D833E834F835887CE010196BE0136
:10046000675F7F4F0E947E05CE010596BE016F5EDD
:100470007F4F0E947E059985923088F0898982306D
:10048000C8F0943019F4823051F404C0843029F457
:10049000923081F485E690E0C6C0923049F420E0C5
:1004A0009A858A89981321E02A87CE010996BBC0D4
:1004B000823049F420E09A858A89981321E02A8BBA
:1004C000CE014196B0C02D843E844F8458886D88FB
:1004D0007E888F88988CEE24FF248701AA24BB2471
:1004E000650140E050E060E070E0E0E0F0E0C10174
:1004F00081709070892BE9F0E60CF71C081D191D1E
:100500009A01AB012A0D3B1D4C1D5D1D80E090E062
:10051000A0E0B0E0E614F7040805190520F481E036
:1005200090E0A0E0B0E0BA01A901480F591F6A1F8E
:100530007B1FAA0CBB1CCC1CDD1C97FE08C081E0F5
:1005400090E0A0E0B0E0A82AB92ACA2ADB2A3196B6
:10055000E032F10549F0660C771C881C991C569412
:10056000479437942794C3CFFA85EA892B893C892D
:100570008B859C85280F391F2E5F3F4F17C0CA01FE
:1005800081709070892B61F016950795F794E79428
:1005900080E090E0A0E0B0E8E82AF92A0A2B1B2BC3
:1005A00076956795579547952F5F3F4F77FDE7CF36
:1005B0000CC0440F551F661F771F17FD4160EE0CDE
:1005C000FF1C001F111F21503040403090E05907A0
:1005D00090E0690790E4790760F32B8F3C8FDB0193
:1005E000CA018F779070A070B07080349105A1051A
:1005F000B10561F447FD0AC0E114F10401051105DC
:1006000029F0405C5F4F6F4F7F4F40781A8EFE1786
:1006100011F081E08A8F4D8F5E8F6F8F78A383E01A
:10062000898FCE0149960E94A904A096E2E10C941C
:10063000C53DA8E1B0E0EFE1F3E00C94B13D698382
:100640007A838B839C832D833E834F835887B9E0C5
:10065000EB2EF12CEC0EFD1ECE010196B7010E948F
:100660007E058E010F5E1F4FCE010596B8010E94D8
:100670007E052985223008F47EC03989323010F495
:10068000B8017CC08A859A8989278A87243011F02D
:10069000223031F4231709F06EC065E670E06EC0B9
:1006A000343039F41D861E861F86188A1C861B86E8
:1006B00004C0323021F484E08987B7015FC02B8504
:1006C0003C858B899C89281B390B3C872B87ED84C3
:1006D000FE840F851889AD88BE88CF88D88CEA142F
:1006E000FB040C051D0540F4EE0CFF1C001F111F40
:1006F000215030403C872B8720E030E040E050E044
:1007000080E090E0A0E0B0E460E070E0EA14FB0478
:100710000C051D0540F0282B392B4A2B5B2BEA18C2
:10072000FB080C091D09B695A79597958795EE0CC2
:10073000FF1C001F111F6F5F7F4F6F31710531F775
:10074000DA01C9018F779070A070B0708034910584
:10075000A105B10561F427FD0AC0E114F10401050A
:10076000110529F0205C3F4F4F4F5F4F20782D87B8
:100770003E874F87588BBE01675F7F4FCB010E943A
:10078000A9046896EAE00C94CD3DA8E1B0E0EBEC5A
:10079000F3E00C94B53D69837A838B839C832D832E
:1007A0003E834F83588789E0E82EF12CEC0EFD1E26
:1007B000CE010196B7010E947E058E010F5E1F4F8C
:1007C000CE010596B8010E947E058985823040F0F1
:1007D0008989823028F0C701B8010E94F60501C05E
:1007E0008FEF6896E6E00C94D13DA8E1B0E0EBEF26
:1007F000F3E00C94B53D69837A838B839C832D83CE
:100800003E834F83588789E0E82EF12CEC0EFD1EC5
:10081000CE010196B7010E947E058E010F5E1F4F2B
:10082000CE010596B8010E947E058985823040F090
:100830008989823028F0C701B8010E94F60501C0FD
:100840008FEF6896E6E00C94D13DA8E1B0E0EBE2D2
:10085000F4E00C94B53D69837A838B839C832D836C
:100860003E834F83588789E0E82EF12CEC0EFD1E65
:10087000CE010196B7010E947E058E010F5E1F4FCB
:10088000CE010596B8010E947E058985823040F030
:100890008989823028F0C701B8010E94F60501C09D
:1008A00081E06896E6E00C94D13DACE0B0E0EBE589
:1008B000F4E00C94B93D69837A838B839C83CE01E9
:1008C0000196BE016B5F7F4F0E947E058D81823055
:1008D00061F1823050F1843021F48E81882351F10E
:1008E0002EC02F81388537FD20C06E812F31310514
:1008F0001CF06623F9F023C08EE190E0821B930B7D
:1009000029853A854B855C8504C056954795379572
:1009100027958A95D2F76623B1F05095409530958A
:1009200021953F4F4F4F5F4F0EC020E030E040E039
:1009300050E009C02FEF3FEF4FEF5FE704C020E02A
:1009400030E040E050E8B901CA012C96E2E00C9496
:10095000D53DDF92EF92FF920F931F93FC01E4804D
:10096000F58006811781D1808081823048F480E053
:1009700090E0A0E1B0E0E82AF92A0A2B1B2BA5C0E1
:10098000843009F49FC0823021F4EE24FF248701D3
:1009900005C0E114F1040105110519F4E0E0F0E0EF
:1009A00096C0628173819FEF623879070CF05BC05B
:1009B00022E83FEF261B370B2A3131052CF020E0CF
:1009C00030E040E050E02AC0B801A701022E04C088
:1009D00076956795579547950A94D2F781E090E010
:1009E000A0E0B0E004C0880F991FAA1FBB1F2A9582
:1009F000D2F70197A109B1098E219F21A023B1232C
:100A00000097A105B10521F081E090E0A0E0B0E001
:100A10009A01AB01282B392B4A2B5B2BDA01C90138
:100A20008F779070A070B07080349105A105B105EA
:100A300039F427FF09C0205C3F4F4F4F5F4F04C080
:100A4000215C3F4F4F4F5F4FE0E0F0E02030A0E0EF
:100A50003A07A0E04A07A0E45A0710F0E1E0F0E00E
:100A600079018A0127C06038710564F5FB01E158FE
:100A7000FF4FD801C7018F779070A070B07080349D
:100A80009105A105B10539F4E7FE0DC080E490E0C1
:100A9000A0E0B0E004C08FE390E0A0E0B0E0E80E9A
:100AA000F91E0A1F1B1F17FF05C016950795F7941F
:100AB000E794319687E016950795F794E7948A9521
:100AC000D1F705C0EE24FF248701EFEFF0E06E2F91
:100AD000679566276795902F9F77D794DD24D794E5
:100AE0008E2F8695492F462B582F5D29B701CA01B5
:100AF0001F910F91FF90EF90DF900895FC01DB01B3
:100B0000408151812281622F6F7770E0221F22275E
:100B1000221F9381892F880F822B282F30E0991F65
:100B20009927991F11969C93119721153105A9F5C5
:100B3000411551056105710511F482E037C082E865
:100B40009FEF13969C938E9312979A01AB0167E0E7
:100B5000220F331F441F551F6A95D1F783E08C93F2
:100B60000DC0220F331F441F551F12968D919C916B
:100B70001397019713969C938E931297203080E0E1
:100B8000380780E0480780E4580758F314962D93FF
:100B90003D934D935C93179708952F3F310579F45A
:100BA000411551056105710519F484E08C93089590
:100BB00064FF03C081E08C9312C01C9210C02F57B9
:100BC000304013963C932E93129783E08C9387E0EA
:100BD000440F551F661F771F8A95D1F770641496CE
:100BE0004D935D936D937C93179708951F93DC014C
:100BF000FB019C91923008F447C08081823008F458
:100C000043C0943051F411961C91843099F5818140
:100C1000682F70E0611B71093FC0843021F0923071
:100C200031F48230B9F18181882389F12DC0119688
:100C30001C9111978230F1F081811817D9F4129626
:100C40002D913C911397828193818217930794F0A1
:100C500028173907BCF014968D919D910D90BC9189
:100C6000A02D2481358146815781281739074A07ED
:100C70005B0718F4112341F00AC082179307A407F9
:100C8000B50740F4112319F061E070E005C06FEF83
:100C90007FEF02C060E070E0CB011F910895DF9309
:100CA000CF9300D000D0CDB7DEB79C838B831A8260
:100CB00019820E94DE20809170009091710000974F
:100CC00031F482E790E090937100809370008B8103
:100CD0009C81009799F180916E0090916F002B811B
:100CE0003C81820F931F25E08B3D920738F52091C0
:100CF0006E0030916F008B819C81280F391F80918D
:100D00006E0090916F0082179307C0F420917000DD
:100D10003091710080916E0090916F00820F931F4F
:100D20009A83898320916E0030916F008B819C8122
:100D3000820F931F90936F0080936E000E94EA20B1
:100D400089819A810F900F900F900F90CF91DF9132
:100D50000895DF93CF9300D0CDB7DEB79A83898310
:100D60000F900F90CF91DF910895DF93CF93CDB780
:100D7000DEB710926F0010926E00CF91DF91089550
:100D8000DF93CF93CDB7DEB720916E0030916F0027
:100D90008BED95E0821B930BCF91DF910895DF934C
:100DA000CF93CDB7DEB728970FB6F894DEBF0FBE4E
:100DB000CDBF9C838B837E836D8358874F83EB816C
:100DC000FC8181E180838B819C8101979C838B8353
:100DD000EB81FC8182E280838B819C8101979C83E3
:100DE0008B83EB81FC8183E380838B819C810197E2
:100DF0009C838B838D819E819A8389838981EB81FA
:100E0000FC8180838B819C8101979C838B8389816A
:100E10009A81892F99279A8389838981EB81FC8123
:100E200080838B819C8101979C838B83EB81FC81E8
:100E300010828B819C8101979C838B83EB81FC8149
:100E400080E880838B819C8101979C838B83EB81DD
:100E5000FC8110828B819C8101979C838B83EB8129
:100E6000FC8182E080838B819C8101979C838B83B2
:100E7000EB81FC8183E080838B819C8101979C8343
:100E80008B83EB81FC8184E080838B819C81019743
:100E90009C838B83EB81FC8185E080838B819C81AB
:100EA00001979C838B83EB81FC8186E080838B811F
:100EB0009C8101979C838B83EB81FC8187E08083FD
:100EC0008B819C8101979C838B83EB81FC8188E0E3
:100ED00080838B819C8101979C838B83EB81FC8138
:100EE00089E080838B819C8101979C838B83EB813C
:100EF000FC8180E180838B819C8101979C838B8323
:100F0000EB81FC8181E180838B819C8101979C83B3
:100F10008B83EB81FC8182E180838B819C810197B3
:100F20009C838B83EB81FC8183E180838B819C811B
:100F300001979C838B83EB81FC8184E180838B818F
:100F40009C8101979C838B83EB81FC8185E180836D
:100F50008B819C8101979C838B83EB81FC8186E153
:100F600080838B819C8101979C838B83EB81FC81A7
:100F700087E180838B819C8101979C838B83EB81AC
:100F8000FC8188E180838B819C8101979C838B838A
:100F9000EB81FC8189E180838B819C8101979C831B
:100FA0008B83EB81FC8180E280838B819C81019724
:100FB0009C838B83EB81FC8181E280838B819C818C
:100FC00001979C838B83EB81FC8182E280838B8100
:100FD0009C8101979C838B83EB81FC8183E28083DE
:100FE0008B819C8101979C838B838F8198859A83C9
:100FF00089838981EB81FC8180838B819C8101972E
:101000009C838B8389819A81892F99279A838983ED
:101010008981EB81FC8180838B819C8101979C83FA
:101020008B83EB81FC8186E280838B819C8101979D
:101030009C838B83EB81FC8187E280838B819C8105
:1010400001979C838B83EB81FC8188E280838B8179
:101050009C8101979C838B83EB81FC8189E2808357
:101060008B819C8101979C838B83EB81FC8180E346
:1010700080838B819C8101979C838B83EB81FC8196
:1010800081E380838B819C8101979C838B838B81FF
:101090009C8128960FB6F894DEBF0FBECDBFCF91CE
:1010A000DF910895DF93CF93CDB7DEB70E94440957
:1010B000A0914E06B0914F06CD91CDBFDD91DEBF20
:1010C000FF91EF91DF91CF91BF91AF919F918F9160
:1010D0007F916F915F914F913F912F911F910F9150
:1010E000FF90EF90DF90CF90BF90AF909F908F9048
:1010F0007F906F905F904F903F902F901F900F9038
:101100000FBE0F90089581E0CF91DF910895DF9396
:10111000CF93CDB7DEB7CF91DF9108950F920FB681
:10112000F8940F921F9211242F923F924F925F9248
:101130006F927F928F929F92AF92BF92CF92DF92E7
:10114000EF92FF920F931F932F933F934F935F93D1
:101150006F937F938F939F93AF93BF93CF93DF93BF
:10116000EF93FF93A0914E06B0914F060DB60D92EE
:101170000EB60D920E945324A0914E06B0914F06D8
:10118000CD91CDBFDD91DEBFFF91EF91DF91CF918A
:10119000BF91AF919F918F917F916F915F914F918F
:1011A0003F912F911F910F91FF90EF90DF90CF9083
:1011B000BF90AF909F908F907F906F905F904F9077
:1011C0003F902F901F900F900FBE0F9008950F9299
:1011D0000FB6F8940F921F9211242F923F924F92C4
:1011E0005F926F927F928F929F92AF92BF92CF92B7
:1011F000DF92EF92FF920F931F932F933F934F93A2
:101200005F936F937F938F939F93AF93BF93CF938E
:10121000DF93EF93FF93A0914E06B0914F060DB66A
:101220000D920EB60D920E94BC22882311F00E94EE
:101230005324A0914E06B0914F06CD91CDBFDD91C4
:10124000DEBFFF91EF91DF91CF91BF91AF919F9161
:101250008F917F916F915F914F913F912F911F914E
:101260000F91FF90EF90DF90CF90BF90AF909F9045
:101270008F907F906F905F904F903F902F901F9036
:101280000F900FBE0F900895DF93CF9300D000D042
:1012900000D0CDB7DEB780E49FE1A0E0B0E08B8363
:1012A0009C83AD83BE838B819C81AD81BE8168941C
:1012B00015F8B695A795979587951694D1F78B83D2
:1012C0009C83AD83BE838B819C81AD81BE81019760
:1012D000A109B1098B839C83AD83BE838B818983F4
:1012E0008B819C81AD81BE81892F9A2FAB2FBB272B
:1012F0008B839C83AD83BE838B818A83EBE4F0E098
:101300008A818083EAE4F0E0898180838BE08983AD
:10131000EEE4F0E089818083E9E5F0E08081898373
:10132000898180618983E9E5F0E08981808326965F
:101330000FB6F894DEBF0FBECDBFCF91DF910895F9
:101340000E94E7081895DF93CF9300D0CDB7DEB7A2
:101350008BE090E00E944F069A83898389819A816D
:10136000009749F0E981FA811182108289819A817E
:1013700002960E94E80C89819A810F900F90CF917C
:10138000DF910895DF93CF93CDB7DEB760970FB6A7
:10139000F894DEBF0FBECDBF9A8789877C876B87A5
:1013A0005E874D87388B2F8789859A859C838B83B1
:1013B00019820E94DE20EB81FC81808191819887D7
:1013C0008F8389859A852B853C85B9010E94990B6D
:1013D0002F8138858B859C85282B392B8D859E8583
:1013E000282339238D859E8528173907C9F42F8135
:1013F00038858B859C85822B932B9E838D83EB81F7
:10140000FC81208131818D859E85809590958223F8
:101410009323EB81FC8191838083188A1F861EC0F1
:101420008F859889009791F08B819C81BC016E5FBC
:101430007F4F8D859E859C0135604F855889CB01F6
:10144000B9010E94E2241E821D8208C0EB81FC814A
:10145000808191819E838D8381E089830E94EA202F
:101460008A838F859889009709F43AC08A818823F6
:1014700011F40E948E080E9407299E838D838D811E
:101480009E8180709270009731F50FB6F8940F929C
:10149000EB81FC81808191819E838D832D813E81B2
:1014A0008D859E85282339238D859E8528173907AC
:1014B00071F4EB81FC81208131818D859E85809541
:1014C000909582239323EB81FC81918380830F90FD
:1014D0000FBE81E089838D819E8190709E838D8374
:1014E0008D819E8160960FB6F894DEBF0FBECDBF92
:1014F000CF91DF9108950F931F93DF93CF93CDB7D3
:10150000DEB763970FB6F894DEBF0FBECDBF9D87E1
:101510008C877F876E87488B298B1B8B0A8B8C85EA
:101520009D859B878A871F821E821B820E94DE20E8
:10153000EA85FB85808191819A83898389819A815B
:101540002E853F85B90149890E94B60C8D838D8116
:101550008823C1F089819A81998788871B8A1A8A92
:1015600088898823E9F1EA85FB85208131818E8590
:101570009F858095909582239323EA85FB859183AF
:1015800080832EC08A899B89009739F489819A814A
:101590009987888781E08B8323C08889882329F0F5
:1015A0008E819F8191609F838E838989882329F012
:1015B0008E819F8194609F838E838A859B85BC01E9
:1015C0006E5F7F4F2E853F858E819F81282B392B23
:1015D0004A895B89CB01B9010E94E22419861886E9
:1015E0000E94EA208C838A899B89009709F43CC079
:1015F0008C81882311F40E948E080E940729998704
:1016000088878885998580709270009741F50FB61C
:10161000F8940F92EA85FB8580819181998788876C
:10162000888599852E853F85B90149890E94B60C28
:10163000882389F08889882371F0EA85FB852081D9
:1016400031818E859F858095909582239323EA85AD
:10165000FB859183808381E08B830F900FBE88850B
:1016600099859070998788878885998563960FB644
:10167000F894DEBF0FBECDBFCF91DF911F910F91C8
:101680000895DF93CF93CDB7DEB728970FB6F894C0
:10169000DEBF0FBECDBF9E838D8378876F838D8124
:1016A0009E819C838B830FB6F8940F92EB81FC8113
:1016B000808191819A838983EB81FC8120813181B2
:1016C0008F8198858095909582239323EB81FC816F
:1016D000918380830F900FBE89819A8128960FB6DF
:1016E000F894DEBF0FBECDBFCF91DF910895DF9399
:1016F000CF93CDB7DEB727970FB6F894DEBF0FBEF6
:10170000CDBF9F838E838E819F819C838B831D821F
:10171000EB81FC81808191819A83898389819A817F
:1017200027960FB6F894DEBF0FBECDBFCF91DF91E5
:101730000895DF93CF93CDB7DEB765970FB6F894D2
:10174000DEBF0FBECDBF9B8B8A8B7D8B6C8B1986CA
:1017500018868A899B899B838A8319828A819B81C7
:1017600002969B878A878A859B8503969D878C87AF
:101770000E94DE20EA85FB8585819681998B888B86
:10178000EA81FB81208131818C899D89822B932B79
:10179000EA81FB819183808359C0E889F98982813C
:1017A00093819F878E87E889F989808191819F83C2
:1017B0008E8319828E819F8180709D838C838E8120
:1017C0009F8190709F838E838C819D8180709470A7
:1017D000009769F4EA81FB81208131818E819F81AC
:1017E00082239323009791F081E089830FC0EA81DF
:1017F000FB81208131818E819F81282339238E8135
:101800009F812817390711F481E089838981882312
:10181000C9F08C819D8180709170009741F088851E
:1018200099852E813F81822B932B99878887EA8126
:10183000FB81808191819C01326088899989B901FD
:101840000E948B268E859F85998B888B2889398964
:101850008C859D852817390709F09FCFEA81FB8188
:101860002081318188859985809590958223932365
:10187000EA81FB81918380830E94EA20EA81FB81D7
:101880008081918165960FB6F894DEBF0FBECDBF03
:10189000CF91DF910895DF93CF9300D000D000D097
:1018A000CDB7DEB79E838D838D819E819C838B8394
:1018B0008B819C8102969A8389830E94DE2008C0D6
:1018C000E981FA818581968160E072E00E948B2631
:1018D000E981FA818081882399F70E94EA208B812F
:1018E0009C810E94A90626960FB6F894DEBF0FBE13
:1018F000CDBFCF91DF910895DF93CF9300D000D07B
:1019000000D0CDB7DEB79A8389834B835C836D8328
:101910007E8389819A812B813C81B9010E94990B38
:1019200026960FB6F894DEBF0FBECDBFCF91DF91E4
:101930000895DF93CF9300D000D000D0CDB7DEB7AD
:101940009A8389834B835C836D837E8389819A81AB
:101950002B813C81B9010E94410B26960FB6F89469
:10196000DEBF0FBECDBFCF91DF910895DF93CF9340
:1019700000D000D000D0CDB7DEB79B838A837D83B3
:101980006C834E8319828E81882359F48A819B81CE
:101990002C813D8182239323009781F081E089830C
:1019A0000DC02A813B818C819D81282339238C8124
:1019B0009D812817390711F481E089838981269652
:1019C0000FB6F894DEBF0FBECDBFCF91DF91089563
:1019D000DF93CF9300D0CDB7DEB79A838983898117
:1019E0009A810396E981FA8192838183E981FA8160
:1019F0008FEF9FEF9483838389819A810396E98196
:101A0000FA819683858389819A810396E981FA8197
:101A100090878783E981FA8110820F900F90CF9190
:101A2000DF910895DF93CF9300D0CDB7DEB79A83CF
:101A30008983E981FA81118610860F900F90CF91EA
:101A4000DF910895DF93CF9300D000D000D0CDB7C1
:101A5000DEB79C838B837E836D83EB81FC818181E8
:101A600092819A838983ED81FE8189819A81938312
:101A70008283E981FA8184819581ED81FE8195835C
:101A80008483E981FA810480F581E02D8D819E8136
:101A900093838283E981FA818D819E8195838483FA
:101AA000ED81FE818B819C8191878087EB81FC8118
:101AB00080818F5FEB81FC81808326960FB6F8943E
:101AC000DEBF0FBECDBFCF91DF910895DF93CF93DF
:101AD000CDB7DEB728970FB6F894DEBF0FBECDBFE7
:101AE0009E838D8378876F83EF81F88580819181D4
:101AF0009A83898389819A812FEF8F3F920739F4E6
:101B0000ED81FE81878190859C838B8318C08D81B8
:101B10009E8103969C838B8306C0EB81FC8182812E
:101B200093819C838B83EB81FC810280F381E02D88
:101B30002081318189819A818217930770F7EB8127
:101B4000FC8182819381EF81F88593838283EF8189
:101B5000F8850280F381E02D8F81988595838483B9
:101B6000EF81F8858B819C8195838483EB81FC8157
:101B70008F81988593838283EF81F8858D819E8103
:101B800091878087ED81FE8180818F5FED81FE816D
:101B9000808328960FB6F894DEBF0FBECDBFCF91DD
:101BA000DF910895DF93CF9300D000D0CDB7DEB79B
:101BB0009C838B83EB81FC81808591859A838983CB
:101BC000EB81FC81A281B381EB81FC8184819581D1
:101BD00015969C938E931497EB81FC81A481B5811B
:101BE000EB81FC818281938113969C938E93129753
:101BF000E981FA81218132818B819C812817390703
:101C000041F4EB81FC8184819581E981FA819283A1
:101C10008183EB81FC8111861086E981FA818081C4
:101C20008150E981FA818083E981FA8180810F9076
:101C30000F900F900F90CF91DF910895DF93CF9386
:101C400000D000D000D0CDB7DEB79D838C836E83EB
:101C500081E08B838C819D819A83898389819A819C
:101C6000009709F48BC0E981FA81838D882309F4F8
:101C700085C0E981FA81838D282F30E08FEF9FE7BF
:101C8000B9010E94733DCB019C01E981FA81848DE9
:101C9000882F90E02817390708F470C00FB6F89421
:101CA0000F92E981FA8140815181E981FA81838D26
:101CB000282F30E0E981FA81848D882F90E0BC01E3
:101CC000269FC001279F900D369F900D1124840FF1
:101CD000951FE981FA8195838483E981FA81128EC7
:101CE000E981FA8180819181E981FA8193838283FC
:101CF000E981FA8140815181E981FA81838D882FC0
:101D000090E09C0121503040E981FA81848D882F38
:101D100090E0BC01269FC001279F900D369F900D3B
:101D20001124840F951FE981FA8197838683E981C5
:101D3000FA818FEF858FE981FA818FEF868F8E810F
:101D4000882379F4E981FA8180858823A1F089814B
:101D50009A8108960E944725882369F00E948E0880
:101D60000AC089819A8108960E94E80C89819A812B
:101D700041960E94E80C0F900FBE01C01B828B8120
:101D800026960FB6F894DEBF0FBECDBFCF91DF9180
:101D900008950F931F93DF93CF93CDB7DEB72997A5
:101DA0000FB6F894DEBF0FBECDBF8F83688749871B
:101DB0001E821D828F81882309F452C08F81282FB3
:101DC00030E08FEF9FE7B9010E94733DCB019C018A
:101DD0008885882F90E02817390708F441C08F8143
:101DE000282F30E08885882F90E0AC01249FC00127
:101DF000259F900D349F900D11245FE7813E95073C
:101E000078F58F81282F30E08885882F90E0AC010D
:101E1000249FC001259F900D349F900D11249C8319
:101E20008B838B819C814F960E944F069E838D836E
:101E30008D819E810097A1F08D819E819A838983F7
:101E400089819A814F969A83898329813A81ED818C
:101E5000FE818F816885A90129858F010E943D0F30
:101E60008D819E8129960FB6F894DEBF0FBECDBF3F
:101E7000CF91DF911F910F9108950F931F93DF93DF
:101E8000CF93CDB7DEB727970FB6F894DEBF0FBE5E
:101E9000CDBF89836A835C834B832D831F830E832D
:101EA0008A81882339F48E819F81EE81FF8191831D
:101EB000808306C08B819C81EE81FF81918380832A
:101EC000EE81FF818981838FEE81FF818A81848FFA
:101ED0008E819F8161E00E941E0E27960FB6F894B6
:101EE000DEBF0FBECDBFCF91DF911F910F9108953F
:101EF000DF93CF93CDB7DEB72F970FB6F894DEBF41
:101F00000FBECDBF998788877B876A875D874C879F
:101F10002E871C82888599859A8389830FB6F894C9
:101F20000F92E981FA81928DE981FA81838D981768
:101F300018F08E85823011F589819A812A853B853A
:101F4000B9014E850E94E3138B83E981FA8181896F
:101F5000882351F089819A8141960E9447258823E0
:101F600041F00E948E0805C08B81882311F00E94E9
:101F70008E080F900FBE81E08F875CC08C859D8599
:101F8000009721F40F900FBE1F8654C08C818823C8
:101F900031F4CE0105960E94B72781E08C830F9023
:101FA0000FBE0E94DE200FB6F8940F92E981FA81ED
:101FB000858D8F3F19F4E981FA81158EE981FA81C7
:101FC000868D8F3F19F4E981FA81168E0F900FBE2E
:101FD000CE0105969E01245F3F4FB9010E94D02794
:101FE000882309F589819A810E945F158823A1F0D1
:101FF00089819A8108962C853D85B9010E94C0246B
:1020000089819A810E94D0140E94EA20882309F0D5
:1020100085CF0E948E0882CF89819A810E94D01438
:102020000E94EA207BCF89819A810E94D0140E946D
:10203000EA201F868F852F960FB6F894DEBF0FBE5D
:10204000CDBFCF91DF910895DF93CF93CDB7DEB7AA
:102050002E970FB6F894DEBF0FBECDBF9987888745
:102060007B876A875D874C872E87888599859D83C6
:102070008C831E82EC81FD81928DEC81FD81838DAC
:10208000981718F08E858230B9F5EC81FD81868D28
:102090008B83EC81FD81828D8A838C819D812A8551
:1020A0003B85B9014E850E94E3138B818F3FA9F4D4
:1020B000EC81FD8181898823E1F08C819D814196AD
:1020C0000E9447258823A9F08C859D85009789F07B
:1020D000EC85FD8581E080830CC00E9466228983A7
:1020E0009B818981981728F48B818F5FEC81FD811A
:1020F000868F81E08F8301C01F828F812E960FB65D
:10210000F894DEBF0FBECDBFCF91DF910895DF936E
:10211000CF93CDB7DEB72B970FB6F894DEBF0FBEC7
:10212000CDBF998788877B876A87888599859D83B6
:102130008C831E82EC81FD81828D8B83EC81FD81FD
:10214000938D8B81891780F5EC81FD81868D8A8343
:102150008B818F5FEC81FD81828F8A818F3FA9F413
:10216000EC81FD8181898823E1F08C819D814196FC
:102170000E9447258823A9F08A859B85009789F0CE
:10218000EA85FB8581E080830CC00E9466228983FA
:102190009A818981981728F48A818F5FEC81FD816B
:1021A000868F81E08F8301C01F828F812B960FB6AF
:1021B000F894DEBF0FBECDBFCF91DF910895DF93BE
:1021C000CF93CDB7DEB72E970FB6F894DEBF0FBE14
:1021D000CDBF998788877B876A875D874C871C82FC
:1021E000888599859B838A830FB6F8940F92EA813C
:1021F000FB81828D898389818823F9F08A819B8183
:102200002A853B85B9010E94891489818150EA8120
:10221000FB81828FEA81FB818085882349F08A8156
:102220009B8108960E944725882311F00E948E0802
:102230000F900FBE81E08E8763C08C859D850097CF
:1022400021F40F900FBE1E865BC08C81882331F471
:10225000CE0105960E94B72781E08C830F900FBEB8
:102260000E94DE200FB6F8940F92EA81FB81858DE3
:102270008F3F19F4EA81FB81158EEA81FB81868DFF
:102280008F3F19F4EA81FB81168E0F900FBECE01AD
:1022900005969E01245F3F4FB9010E94D0278823F5
:1022A00009F58A819B810E9423158823A1F08A81E8
:1022B0009B8141962C853D85B9010E94C0248A816D
:1022C0009B810E94D0140E94EA20882309F08CCFC1
:1022D0000E948E0889CF8A819B810E94D0140E941F
:1022E000EA2082CF8A819B810E94D0140E94EA203A
:1022F0008A819B810E942315882309F475CF1E864D
:102300008E852E960FB6F894DEBF0FBECDBFCF914F
:10231000DF910895DF93CF93CDB7DEB72C970FB63B
:10232000F894DEBF0FBECDBF998788877B876A8709
:102330001C82888599859B838A830FB6F8940F92B7
:10234000EA81FB81828D898389818823C1F089811B
:102350008150EA81FB81828FEA81FB81808588231D
:1023600049F08A819B8108960E944725882311F0B5
:102370000E948E080F900FBE81E08C8763C08A8513
:102380009B85009721F40F900FBE1C865BC08C814B
:10239000882331F4CE0105960E94B72781E08C8313
:1023A0000F900FBE0E94DE200FB6F8940F92EA81C4
:1023B000FB81858D8F3F19F4EA81FB81158EEA81BF
:1023C000FB81868D8F3F19F4EA81FB81168E0F9079
:1023D0000FBECE0105969E01265F3F4FB9010E94B8
:1023E000D027882309F58A819B810E9423158823A1
:1023F000A1F08A819B8141962A853B85B9010E9483
:10240000C0248A819B810E94D0140E94EA208823E4
:1024100009F093CF0E948E0890CF8A819B810E9401
:10242000D0140E94EA2089CF8A819B810E94D01417
:102430000E94EA208A819B810E942315882309F447
:102440007CCF1C868C852C960FB6F894DEBF0FBE11
:10245000CDBFCF91DF910895DF93CF93CDB7DEB796
:1024600060970FB6F894DEBF0FBECDBF9B878A87FB
:102470007D876C875F874E871E828A859B859B83BD
:102480008A830FB6F8940F92EA81FB81828D89834B
:102490008981882331F1EA81FB81868197819D833F
:1024A0008C838A819B812C853D85B9010E9489148A
:1024B000EA81FB818C819D8197838683EA81FB8100
:1024C0008189882349F08A819B8141960E94472512
:1024D000882311F00E948E080F900FBE81E0888B38
:1024E00063C08E859F85009721F40F900FBE188AD8
:1024F0005BC08E81882331F4CE0107960E94B727F6
:1025000081E08E830F900FBE0E94DE200FB6F894FC
:102510000F92EA81FB81858D8F3F19F4EA81FB815F
:10252000158EEA81FB81868D8F3F19F4EA81FB814C
:10253000168E0F900FBECE0107969E01225F3F4F71
:10254000B9010E94D027882309F58A819B810E94C6
:1025500023158823A1F08A819B8141962E853F8592
:10256000B9010E94C0248A819B810E94D0140E94DC
:10257000EA20882309F085CF0E948E0882CF8A81C5
:102580009B810E94D0140E94EA207BCF8A819B818C
:102590000E94D0140E94EA208A819B810E94231508
:1025A000882309F46ECF188A888960960FB6F8944C
:1025B000DEBF0FBECDBFCF91DF910895DF93CF93E4
:1025C000CDB7DEB72D970FB6F894DEBF0FBECDBFE7
:1025D000998788877B876A875D874C8788859985F7
:1025E0009D838C831E82EC81FD81828D8B838B8108
:1025F0008823B9F1EC81FD81858D8A838C819D8151
:102600002A853B85B9010E9489148B818150EC8118
:10261000FD81828F8A818F3FA9F4EC81FD818085C5
:102620008823E1F08C819D8108960E9447258823AC
:10263000A9F08C859D85009789F0EC85FD8581E06A
:1026400080830CC00E94662289839A8189819817B1
:1026500028F48A818F5FEC81FD81858F81E08F83F3
:1026600001C01F828F812D960FB6F894DEBF0FBE7A
:10267000CDBFCF91DF910895DF93CF93CDB7DEB774
:102680002A970FB6F894DEBF0FBECDBF98878F8311
:102690007A8769878F8198859A8389831D82E981EA
:1026A000FA81828D8823B1F0E981FA818681978150
:1026B0009C838B8389819A8129853A85B9010E94FF
:1026C0008914E981FA818B819C819783868381E0DB
:1026D0008E8301C01E828E812A960FB6F894DEBFCB
:1026E0000FBECDBFCF91DF910895DF93CF9300D080
:1026F0000F92CDB7DEB79B838A830FB6F8940F9203
:10270000EA81FB81828D89830F900FBE89810F90B2
:102710000F900F90CF91DF910895DF93CF9300D06A
:1027200000D00F92CDB7DEB79D838C838C819D81C5
:102730009A8389830FB6F8940F92E981FA81938D79
:10274000E981FA81828D292F281B822F8B830F909C
:102750000FBE8B810F900F900F900F900F90CF9125
:10276000DF910895DF93CF9300D000D00F92CDB7C3
:10277000DEB79D838C838C819D819A838983E981D7
:10278000FA81828D8B838B810F900F900F900F9029
:102790000F90CF91DF910895DF93CF9300D000D0B9
:1027A000CDB7DEB79C838B838B819C819A83898391
:1027B00089819A810E94A9060F900F900F900F9027
:1027C000CF91DF910895DF93CF93CDB7DEB72797F1
:1027D0000FB6F894DEBF0FBECDBF9C838B837E8384
:1027E0006D834F831A82EB81FC81828D8983EB811B
:1027F000FC81848D882309F47DC08F81882399F51D
:10280000EB81FC8162817381EB81FC81848D482F97
:1028100050E02D813E81CB01B9010E94E03DEB816A
:10282000FC8122813381EB81FC81848D882F90E0B3
:10283000820F931FEB81FC8193838283EB81FC8168
:1028400022813381EB81FC818481958128173907AE
:1028500008F450C0EB81FC8180819181EB81FC8187
:102860009383828347C0EB81FC8166817781EB8112
:10287000FC81848D482F50E02D813E81CB01B90130
:102880000E94E03DEB81FC8126813781EB81FC8158
:10289000848D882F90E0909581959F4F820F931F94
:1028A000EB81FC8197838683EB81FC8126813781D4
:1028B000EB81FC81808191812817390790F4EB81AD
:1028C000FC8124813581EB81FC81848D882F90E00F
:1028D000909581959F4F820F931FEB81FC81978389
:1028E00086838F81823031F48981882319F0898130
:1028F0008150898389818F5FEB81FC81828F8A81FE
:1029000027960FB6F894DEBF0FBECDBFCF91DF91F3
:102910000895DF93CF9300D000D0CDB7DEB79A8370
:1029200089837C836B83E981FA81848D882389F193
:10293000E981FA8126813781E981FA81848D882FA6
:1029400090E0820F931FE981FA8197838683E98162
:10295000FA8126813781E981FA818481958128175E
:10296000390740F0E981FA8180819181E981FA811A
:1029700097838683E981FA8146815781E981FA81CB
:10298000848D282F30E08B819C81BA01A9010E949F
:10299000E03D0F900F900F900F90CF91DF91089531
:1029A000DF93CF9300D000D0CDB7DEB79C838B836D
:1029B0000FB6F8940F92EB81FC81868D8A8311C04B
:1029C000EB81FC818189882379F08B819C81419600
:1029D0000E944725882311F00E9437288A81815060
:1029E0008A838A81181664F3EB81FC818FEF868FCE
:1029F0000F900FBE0FB6F8940F92EB81FC81858D7E
:102A0000898311C0EB81FC818085882379F08B81DB
:102A10009C8108960E944725882311F00E94372840
:102A20008981815089838981181664F3EB81FC8147
:102A30008FEF858F0F900FBE0F900F900F900F901C
:102A4000CF91DF910895DF93CF9300D00F92CDB750
:102A5000DEB79B838A830FB6F8940F92EA81FB81DD
:102A6000828D882319F481E0898301C019820F9037
:102A70000FBE89810F900F900F90CF91DF91089535
:102A8000DF93CF9300D000D00F92CDB7DEB79D83F8
:102A90008C838C819D819A838983E981FA81828DDF
:102AA000882319F481E08B8301C01B828B810F90F6
:102AB0000F900F900F900F90CF91DF910895DF93BB
:102AC000CF9300D00F92CDB7DEB79B838A830FB62A
:102AD000F8940F92EA81FB81928DEA81FB81838DCC
:102AE000981719F481E0898301C019820F900FBEF5
:102AF00089810F900F900F90CF91DF910895DF9310
:102B0000CF9300D000D00F92CDB7DEB79D838C83DA
:102B10008C819D819A838983E981FA81928DE981F3
:102B2000FA81838D981719F481E08B8301C01B8291
:102B30008B810F900F900F900F900F90CF91DF919E
:102B40000895CF92DF92EF92FF920F931F93DF933E
:102B5000CF93CDB7DEB72C970FB6F894DEBF0FBE7C
:102B6000CDBF9D838C837F836E8348873A87298777
:102B70001C870B878885813019F481E0898301C027
:102B800019828E819F81009721F481E090E09F83DC
:102B90008E838C819D819C01205F3F4F8C819D8124
:102BA0008217930768F48C819D8101969D838C83A5
:102BB0008C819D810F960E944F069B838A8302C061
:102BC0001B821A828A819B810097B1F06A817B8186
:102BD0008A819B819C01215F3F4F4C815D81EE8109
:102BE000FF81A985BA85CB84DC84CB01B9019F0123
:102BF00009817D010E94591D8A819B812C960FB607
:102C0000F894DEBF0FBECDBFCF91DF911F910F9122
:102C1000FF90EF90DF90CF900895DF93CF9300D097
:102C200000D0CDB7DEB79C838B838B819C819A8348
:102C30008983E981FA818685882F90E0827090707F
:102C4000009729F489819A810E94A90608C0898188
:102C50009A8160E070E04FE050E00E94E93D0F9003
:102C60000F900F900F90CF91DF910895CF92DF9248
:102C7000EF92FF920F931F93DF93CF93CDB7DEB701
:102C800029970FB6F894DEBF0FBECDBF998788870E
:102C9000888599859F838E831D821C821B821A8260
:102CA00019820FB6F8940F92EE81FF81808591858D
:102CB000009721F5EE81FF81828593850097F1F4DD
:102CC000EE81FF8144855585EE81FF812481358128
:102CD000EE81FF81A681B781EE81FF8116858E810D
:102CE0009F81EB81FC81C980DA80BA01A9019D0135
:102CF000012F7F010E94591D81E08D830F900FBE2F
:102D00008D8129960FB6F894DEBF0FBECDBFCF914F
:102D1000DF911F910F91FF90EF90DF90CF9008957A
:102D2000DF93CF93CDB7DEB727970FB6F894DEBF0A
:102D30000FBECDBF9D838C837F836E838C819D81ED
:102D40009B838A838E819F81009721F481E090E0AC
:102D50009F838E83EA81FB81248135818E819F81CF
:102D60008217930748F4EA81FB818E819F819783C4
:102D7000868381E0898301C01982898127960FB6F5
:102D8000F894DEBF0FBECDBFCF91DF910895DF93E2
:102D9000CF93CDB7DEB728970FB6F894DEBF0FBE3E
:102DA000CDBF98878F838F8198859E838D83ED819A
:102DB000FE81808191819A838983ED81FE812481C6
:102DC0003581ED81FE8180819181820F931F9C83EB
:102DD0008B83ED81FE81228133818B819C81821BDB
:102DE000930B9C838B83ED81FE81208131818981CE
:102DF0009A8128173907D9F68B819C8101979C838A
:102E00008B83ED81FE81248135818B819C818217AA
:102E1000930750F0ED81FE81248135818B819C8167
:102E2000821B930B9C838B838B819C8128960FB68E
:102E3000F894DEBF0FBECDBFCF91DF910895DF9331
:102E4000CF9300D000D000D0CDB7DEB79E838D8366
:102E50008D819E819C838B838B819C810E941F1D11
:102E60009A83898389819A8126960FB6F894DEBF6A
:102E70000FBECDBFCF91DF910895CF92DF92EF9239
:102E8000FF920F931F93DF93CF93CDB7DEB7659774
:102E90000FB6F894DEBF0FBECDBF9F878E87798BAC
:102EA000688B5B8B4A8B3D8B2C8B8E859F859A879D
:102EB00089871E821D828A899B899C838B831A82C3
:102EC0001982E985FA858481958101979A8389839E
:102ED000E985FA858685882F90E081709070882337
:102EE00079F08B819C8102969C838B832B813C8122
:102EF00089819A818217930770F41D8A1C8A0BC0FE
:102F00002B813C8189819A818217930720F48981E2
:102F10009A819C838B838C899D89009709F443C097
:102F2000CE010B960E9499270FB6F8940F928985CF
:102F30009A850E94C7169E838D832D813E818B8149
:102F40009C812817390768F580E090E060E00E94D6
:102F5000E82F0E94F528E985FA85938782870F90EC
:102F60000FBEEC89FD8980E040E050E060E070E059
:102F700000E010E020E030E0EE24FF246F010E942A
:102F8000E429E985FA8513861286CE010B969E0107
:102F90002C5E3F4FB9010E94D027882309F4C4CF8B
:102FA00002C00F900FBE8D819E81009731F48985FC
:102FB0009A850E94C7169E838D8389859A85288964
:102FC00039894A895B89ED81FE81AB81BC81B90178
:102FD0009F018D010E94AD1898878F838F819885FE
:102FE000009741F189859A850E941F1D9C01E98502
:102FF000FA858681978128173907E0F00E94DE2044
:10300000E985FA8580859185009791F0E985FA85B3
:103010008085918560E020E030E040E050E000E015
:10302000EE24FF240E94DB2AE985FA8511861086AA
:103030000E94EA208F81988565960FB6F894DEBFCE
:103040000FBECDBFCF91DF911F910F91FF90EF90F9
:10305000DF90CF900895CF92DF92EF92FF920F937F
:103060001F93DF93CF93CDB7DEB761970FB6F89478
:10307000DEBF0FBECDBF9B878A877D876C875F874A
:103080004E87398B288B8A859B85998788878E8583
:103090009F859B838A83E885F9858685882F90E0C4
:1030A00081709070882329F08A819B8102969B838E
:1030B0008A83888599850E94C7169D838C8388851D
:1030C00099852C853D854E855F85EC81FD81AA81A2
:1030D000BB81B9019F018D010E94AD189F838E8332
:1030E0008E819F81009741F1888599850E941F1DDF
:1030F0009C01E885F9858681978128173907E0F0DA
:103100001982E885F985808591850097A9F0E88581
:10311000F98580859185E889F98960E020E030E0D3
:1031200040E050E000E0EE24FF246F010E94992C63
:10313000E885F985118610868E819F8161960FB68C
:10314000F894DEBF0FBECDBFCF91DF911F910F91DD
:10315000FF90EF90DF90CF9008950F931F93DF9330
:10316000CF93CDB7DEB762970FB6F894DEBF0FBE30
:10317000CDBF9E838D8378876F835A8749873C872D
:103180002B871E870D87ED81FE81828193819A8333
:103190008983ED81FE818685882F90E08170907013
:1031A0008823F1F089859A859C838B832B853C85C8
:1031B0008D859E852817390780F09E012D5F3F4F32
:1031C0008D819E81E981FA81B90142E050E09F0141
:1031D0000E94171C9A8389831AC01A86198617C001
:1031E00029853A853A8B298B8B859C85988B8F878F
:1031F0002F85388989899A898217930720F429892C
:103200003A89388B2F878F8598899A87898789850E
:103210009A85009789F04F8158858D819E812985F7
:103220003A85E981FA81BA01A9019F010E94171C20
:10323000ED81FE819383828389859A8562960FB69C
:10324000F894DEBF0FBECDBFCF91DF911F910F91DC
:103250000895CF92DF92EF92FF920F931F93DF9327
:10326000CF93CDB7DEB760970FB6F894DEBF0FBE31
:10327000CDBF9A8789877C876B875E874D87388B20
:103280002F8789859A8598878F831E821D82EF817B
:10329000F8858685882F90E081709070882329F0CA
:1032A00082E090E09A83898302C01A8219828F8516
:1032B0009889009709F43FC00FB6F8940F928F8158
:1032C00098850E941F1D9C838B832B813C81898163
:1032D0009A818217930758F080E090E060E00E94A6
:1032E000E82F0E94F528EF81F885918780870F905D
:1032F0000FBE2B813C8189819A818217930708F147
:10330000EF85F88980E040E050E060E070E000E0A8
:1033100010E020E030E0EE24FF246F010E94E42959
:10332000EF81F885118610868F8198850E941F1D78
:103330009C838B8306C08F8198850E941F1D9C8370
:103340008B832B813C8189819A818217930770F549
:103350008F8198852B853C854D855E85EB81FC8131
:10336000B9019F010E94A81A9E838D838D819E8141
:103370000097E1F00E94DE20E985FA858285938539
:10338000009791F0E985FA858285938560E020E0D9
:1033900030E040E050E000E0EE24FF240E94DB2A11
:1033A000E985FA85138612860E94EA208D819E8126
:1033B00060960FB6F894DEBF0FBECDBFCF91DF9100
:1033C0001F910F91FF90EF90DF90CF900895DF93C2
:1033D000CF93CDB7DEB72A970FB6F894DEBF0FBEF6
:1033E000CDBF9A87898789859A859E838D83ED8154
:1033F000FE818685882F90E081709070882319F176
:103400008D819E810E941F1D9A83898389819A8163
:1034100083309105A8F09E01295F3F4FED81FE8129
:103420000190F081E02D8D819E81B90142E050E054
:103430009F010E949A1C8F8198859C838B8305C075
:103440001C821B8202C01C821B828B819C812A965B
:103450000FB6F894DEBF0FBECDBFCF91DF910895B8
:10346000CF92DF92EF92FF920F93DF93CF93CDB77E
:10347000DEB761970FB6F894DEBF0FBECDBF9B8756
:103480008A877D876C875F874E87398B288B8A85F3
:103490009B85998788871F821E82E885F9858685A6
:1034A000882F90E081709070882329F082E090E06E
:1034B0009B838A8302C01B821A82888599850E9419
:1034C0001F1D9D838C832C813D818A819B81821766
:1034D000930770F5888599852C853D854E855F8598
:1034E000EC81FD81B9019F010E94A81A9F838E8300
:1034F0008E819F810097E1F01982E885F9858285A8
:1035000093850097A9F0E885F98582859385E889F8
:10351000F98960E020E030E040E050E000E0EE2497
:10352000FF246F010E94992CE885F9851386128685
:103530008E819F8161960FB6F894DEBF0FBECDBF1E
:10354000CF91DF910F91FF90EF90DF90CF90089592
:10355000DF93CF93CDB7DEB764970FB6F894DEBF95
:103560000FBECDBF9A8789877C876B875E874D8723
:10357000388B2F87E985FA85808191819A838983A9
:10358000E985FA858685882F90E081709070882380
:1035900011F19E01295F3F4F89859A85E981FA8162
:1035A000B90142E050E09F010E949A1C9A838983EE
:1035B0008F8198859C838B838F8598890297988BC0
:1035C0008F872B813C818D859E858217930738F4E8
:1035D0001C821B8204C08D859E859C838B832B81DE
:1035E0003C813C8B2B8B8F8598899A8B898B298981
:1035F0003A898B899C898217930720F42B893C890F
:103600003A8B298B89899A899E838D838D819E81AE
:10361000009789F04B855C8589859A852D813E814F
:10362000E981FA81BA01A9019F010E949A1CE985EA
:10363000FA85918380838D819E8164960FB6F8947C
:10364000DEBF0FBECDBFCF91DF910895DF93CF9343
:10365000CDB7DEB727970FB6F894DEBF0FBECDBF4C
:103660009F838E838E819F819D838C83EC81FD81DE
:10367000808191819A838983EC81FD8122813381CC
:1036800089819A812817390719F481E08B8301C059
:103690001B828B8127960FB6F894DEBF0FBECDBF7D
:1036A000CF91DF910895DF93CF93CDB7DEB7279702
:1036B0000FB6F894DEBF0FBECDBF9F838E838E8181
:1036C0009F819A838983E981FA818685882F90E09A
:1036D00081709070882329F082E090E09C838B8336
:1036E00002C01C821B828E819F810E94C7169C0192
:1036F0008B819C818217930718F081E08D8301C034
:103700001D828D8127960FB6F894DEBF0FBECDBF08
:10371000CF91DF910895CF92DF92EF92FF920F93B6
:10372000DF93CF93CDB7DEB728970FB6F894DEBFFF
:103730000FBECDBF9E838D8378876F838D819E81E1
:103740009C838B831982EB81FC8180859185009716
:10375000C1F0EB81FC8180859185EF81F88560E087
:1037600020E030E040E050E000E0EE24FF246F0174
:103770000E94992CEB81FC811186108681E08A835E
:1037800001C01A828A8128960FB6F894DEBF0FBE58
:10379000CDBFCF91DF910F91FF90EF90DF90CF9051
:1037A0000895CF92DF92EF92FF920F93DF93CF9322
:1037B000CDB7DEB728970FB6F894DEBF0FBECDBFEA
:1037C0009E838D8378876F838D819E819C838B837D
:1037D0001982EB81FC81828593850097C1F0EB8192
:1037E000FC8182859385EF81F88560E020E030E000
:1037F00040E050E000E0EE24FF246F010E94992C8D
:10380000EB81FC811386128681E08A8301C01A82D3
:103810008A8128960FB6F894DEBF0FBECDBFCF9138
:10382000DF910F91FF90EF90DF90CF900895DF939D
:10383000CF93CDB7DEB72E970FB6F894DEBF0FBE8D
:10384000CDBF9C838B837E836D8358874F833A875C
:103850002987EB81FC812481358189859A85A9019D
:10386000481B590BCA012F8138853E872D879C87BD
:103870008B874B855C858D859E858417950720F405
:103880002D853E853C872B874B855C855A834983F4
:10389000EB81FC812485358589859A85820F931F6C
:1038A0002D813E8149815A81B9010E94E03D2F81DD
:1038B000388589819A8182179307B0F4EB81FC8166
:1038C000648575852D813E8189819A81A901480F82
:1038D000591F2F81388589819A81281B390BCB018B
:1038E000BA01A9010E94E03D29853A858F8198851A
:1038F000820F931F9A878987EB81FC812481358110
:1039000089859A858217930750F0EB81FC81248189
:10391000358189859A85821B930B9A87898789854A
:103920009A852E960FB6F894DEBF0FBECDBFCF910D
:10393000DF910895DF93CF93CDB7DEB72E970FB603
:10394000F894DEBF0FBECDBF9C838B837E836D83D7
:1039500058874F833A872987EB81FC812481358101
:1039600089859A85A901481B590BCA012F81388581
:103970003E872D879C878B874B855C858D859E85B3
:103980008417950720F42D853E853C872B874B8532
:103990005C855A834983EB81FC8124853585898543
:1039A0009A85A901480F591F8D819E8129813A81ED
:1039B000BA01A9010E94E03D2F81388589819A8151
:1039C00082179307B0F42D813E8189819A81B901D4
:1039D000680F791FEB81FC81448555852F813885DF
:1039E00089819A81281B390BCB01BA01A9010E9458
:1039F000E03D29853A858F819885820F931F9A87AC
:103A00008987EB81FC812481358189859A8582179C
:103A1000930750F0EB81FC812481358189859A855B
:103A2000821B930B9A87898789859A852E960FB674
:103A3000F894DEBF0FBECDBFCF91DF910895DF9325
:103A4000CF9300D000D0CDB7DEB79C838B83EB81C2
:103A5000FC8124813581EB81FC8182819381820FFD
:103A6000931F9A838983EB81FC8120813181898135
:103A70009A81821B930B9A838983EB81FC81248139
:103A8000358189819A818217930750F0EB81FC81FF
:103A90002481358189819A81821B930B9A83898342
:103AA00089819A810F900F900F900F90CF91DF91A5
:103AB0000895CF92DF92EF92FF920F93DF93CF930F
:103AC000CDB7DEB72D970FB6F894DEBF0FBECDBFD2
:103AD0009A8389837C836B835E834D8338872F83AE
:103AE0000987FB86EA86DD86CC8689819A8160E03B
:103AF00070E04FE050E00E94E93DE981FA818B815E
:103B00009C8195878487E981FA818D819E81958347
:103B10008483E981FA818F81988597838683E981FF
:103B2000FA81898586872D960FB6F894DEBF0FBE81
:103B3000CDBFCF91DF910F91FF90EF90DF90CF90AD
:103B400008958F929F92AF92BF92CF92DF92EF92A1
:103B5000FF920F931F93DF93CF93CDB7DEB760979C
:103B60000FB6F894DEBF0FBECDBF9F838E837987DB
:103B700068875B874A873D872C870E87F88AEF86A0
:103B80008A859B850E944F069A83898389819A81C1
:103B90000097F1F086E290E00E944F069D838C83AF
:103BA0008C819D81009779F08C819D8160E070E02F
:103BB00046E250E00E94E93DEC81FD8189819A81D5
:103BC000908F878B07C089819A810E94A90602C0C5
:103BD0001D821C828C819D810097E9F08A859B85DE
:103BE0009C0140E050E08E819F8168857985EC855D
:103BF000FD85AF85B889AC80BD808F01EE846D01F5
:103C0000882499240E94211E8C819D810E94D01EAF
:103C100081E08B8302C08FEF8B838B8160960FB620
:103C2000F894DEBF0FBECDBFCF91DF911F910F91F2
:103C3000FF90EF90DF90CF90BF90AF909F908F90CC
:103C400008958F929F92AF92BF92CF92DF92EF92A0
:103C50000F931F93DF93CF93CDB7DEB764970FB663
:103C6000F894DEBF0FBECDBF9D838C837F836E83B0
:103C7000288739874A875B871D870C87EE86D88A15
:103C8000CF86BA8AA98A9C8A8B8AE989FA89278988
:103C9000308D888599850197820F931F9B838A8336
:103CA0008E819F81009749F1198221C08981482F17
:103CB00050E08981282F30E08E819F81FC01E20F46
:103CC000F31F208189899A89840F951FFC017996B9
:103CD00020838981282F30E08E819F81FC01E20FB3
:103CE000F31F8081882331F089818F5F89838981E7
:103CF0008830E0F2E989FA8910A28E85843010F0CC
:103D000083E08E87E989FA898E85868B89899A89ED
:103D100002960E94120D89899A890C960E94120DB2
:103D2000E989FA8989899A89918780878E85282FE0
:103D300030E084E090E0821B930BE989FA89958753
:103D40008487E989FA8989899A89938B828B8A8108
:103D50009B812C813D814C855D85B9010E94CF06F8
:103D6000E989FA89918380838F859889009731F05A
:103D7000EF85F88989899A899183808364960FB643
:103D8000F894DEBF0FBECDBFCF91DF911F910F9191
:103D9000EF90DF90CF90BF90AF909F908F9008955D
:103DA000DF93CF9300D000D0CDB7DEB79C838B8359
:103DB0000FB6F8940F92809151068F5F8093510651
:103DC00080914E0690914F06009769F48B819C81FB
:103DD00090934F0680934E06809151068130B9F43E
:103DE0000E94512814C080915506882381F4E091E7
:103DF0004E06F0914F069689EB81FC8186898917E2
:103E000030F08B819C8190934F0680934E06809179
:103E10005A068F5F80935A06EB81FC8196898091C8
:103E20005406891728F4EB81FC8186898093540617
:103E3000EB81FC818689282F30E0C901880F991F0A
:103E4000880F991F880F991F820F931FFC01E05A5A
:103E5000F94F818192819A838983EB81FC818981E9
:103E60009A8195838483E981FA8184819581EB81AC
:103E7000FC8197838683E981FA810480F581E02DB6
:103E80008B819C810296938382838B819C81029695
:103E9000E981FA8195838483EB81FC818689282FCF
:103EA00030E0C901880F991F880F991F880F991F4B
:103EB000820F931F805A994FEB81FC8193878287F1
:103EC000EB81FC818689282F30E0C901880F991F7A
:103ED000880F991F880F991F820F931FFC01E05ACA
:103EE000F94F80818F5F80830F900FBE80915506C0
:103EF000882361F0E0914E06F0914F069689EB81A0
:103F0000FC818689981710F40E948E080F900F90FC
:103F10000F900F90CF91DF910895DF93CF9300D052
:103F200000D000D0CDB7DEB79C838B830FB6F8945A
:103F30000F928B819C81009739F480914E0690916D
:103F40004F069E838D8304C08B819C819E838D83CD
:103F50008D819E819A83898389819A8102960E94AC
:103F6000D20DE981FA8184899589009729F08981A8
:103F70009A810C960E94D20D80915A068F5F809391
:103F80005A0620914E0630914F0689819A818217F8
:103F9000930781F489819A819C012E5F3F4F83EAC8
:103FA00096E0B9010E94220D809150068F5F8093A8
:103FB000500607C0809151068150809351060E949F
:103FC000D3280F900FBE20914E0630914F06898165
:103FD0009A818217930721F089819A810E94BD28D6
:103FE00080915506882359F020914E0630914F0656
:103FF00089819A818217930711F40E948E08269670
:104000000FB6F894DEBF0FBECDBFCF91DF910895FC
:10401000DF93CF93CDB7DEB72A970FB6F894DEBF04
:104020000FBECDBF98878F837A8769871B820E94D6
:10403000DE2080915206909153069A838983EF8106
:10404000F8852081318189859A85820F931F9E830F
:104050008D83EF81F8852081318189819A81821752
:10406000930798F4EF81F885208131818D819E81BD
:1040700082179307E0F42D813E8189819A8182170E
:104080009307A8F481E08B8312C0EF81F88520812B
:1040900031818D819E818217930738F02D813E8179
:1040A00089819A818217930710F481E08B83EF81D5
:1040B000F8858D819E81918380838B81882349F04F
:1040C0008D819E8129813A81821B930B60E00E9441
:1040D000B3300E94EA208C838C81882311F40E94E3
:1040E0008E088B812A960FB6F894DEBF0FBECDBF27
:1040F000CF91DF910895DF93CF9300D00F92CDB78A
:10410000DEB79B838A8319828A819B81009751F055
:104110000E94DE208A819B8160E00E94B3300E9471
:10412000EA2089838981882311F40E948E080F90E8
:104130000F900F90CF91DF910895EF92FF920F9320
:10414000DF93CF9300D0CDB7DEB781E498E220E6CD
:1041500030E0EDE5F6E0B90145E550E020E030E083
:1041600000E07F010E94A11D89838981813081F453
:10417000F8948FEF9FEF90935C0680935B0681E04D
:104180008093550610925306109252060E945208D0
:1041900080916D000F900F90CF91DF910F91FF9064
:1041A000EF900895DF93CF93CDB7DEB7F8941092D8
:1041B00055060E948708CF91DF910895DF93CF9332
:1041C000CDB7DEB780915F068F5F80935F06CF919A
:1041D000DF910895DF93CF93CDB7DEB72B970FB65E
:1041E000F894DEBF0FBECDBF1B861A8619860FB6A8
:1041F000F8940F9280915F06815080935F068091C2
:104200005F06882309F02AC180915106882309F4AA
:1042100025C1F3C0E0919F06F091A00686819781A9
:104220009B878A87EA85FB858489958998878F8310
:10423000EA85FB85A685B785EA85FB858089918916
:1042400015969C938E931497EA85FB85A089B18976
:10425000EA85FB858685978513969C938E931297A6
:10426000EF81F885218132818A859B850C962817FC
:10427000390741F4EA85FB8580899189EF81F885CA
:1042800092838183EA85FB85158A148AEF81F885FC
:1042900080818150EF81F8858083EA85FB85828566
:1042A00093859E838D83EA85FB85A481B581EA850C
:1042B000FB858681978115969C938E931497EA854A
:1042C000FB85A681B781EA85FB858481958113965C
:1042D0009C938E931297ED81FE81218132818A8594
:1042E0009B8502962817390741F4EA85FB8586816C
:1042F0009781ED81FE8192838183EA85FB85138618
:104300001286ED81FE8180818150ED81FE81808366
:10431000EA85FB85968980915406891728F4EA85F9
:10432000FB85868980935406EA85FB858689282F3C
:1043300030E0C901880F991F880F991F880F991FB6
:10434000820F931FFC01E05AF94F818192819C8377
:104350008B83EA85FB858B819C8195838483EB81AC
:10436000FC8184819581EA85FB8597838683EB8137
:10437000FC810480F581E02D8A859B8502969383DC
:1043800082838A859B850296EB81FC819583848359
:10439000EA85FB858689282F30E0C901880F991F9F
:1043A000880F991F880F991F820F931F805A994F6A
:1043B000EA85FB8593878287EA85FB858689282F96
:1043C00030E0C901880F991F880F991F880F991F26
:1043D000820F931FFC01E05AF94F80818F5F808329
:1043E000EA85FB859689E0914E06F0914F06868915
:1043F000981718F081E08093580680919A068823D8
:1044000009F008CF8A859B85009711F00E94D32878
:1044100080915606909157069A83898389819A8163
:104420000097A1F00E94BC22882319F081E08093BC
:10443000580689819A8101979A83898389819A8113
:10444000009781F7109257061092560680915806F1
:10445000882321F081E089870E948E080F900FBE8B
:1044600089852B960FB6F894DEBF0FBECDBFCF91D6
:10447000DF910895DF93CF9300D0CDB7DEB70FB6AD
:10448000F8940F9280915206909153069A838983F3
:104490000F900FBE89819A810F900F90CF91DF917D
:1044A0000895DF93CF9300D00F92CDB7DEB7198276
:1044B00080915206909153069B838A838A819B81C7
:1044C0000F900F900F90CF91DF910895DF93CF93CE
:1044D000CDB7DEB780915106CF91DF910895DF937C
:1044E000CF9300D000D000D0CDB7DEB79C838B83B4
:1044F0008B819C81009739F480914E0690914F06F4
:104500009E838D8304C08B819C819E838D838D814E
:104510009E819A83898389819A81499626960FB6CE
:10452000F894DEBF0FBECDBFCF91DF910895DF932A
:10453000CF9300D00F92CDB7DEB79B838A830E94C2
:10454000DE200FB6F8940F92209156063091570650
:104550008A819B81820F931F909357068093560602
:104560000F900FBE0E94EA20898389810F900F90DF
:104570000F90CF91DF910895DF93CF93CDB7DEB742
:104580002F970FB6F894DEBF0FBECDBF1B8680916C
:104590005F06882309F074C18091520690915306FA
:1045A00001969A87898789859A8590935306809387
:1045B000520689859A850097D9F480919606909144
:1045C000970698878F83809198069091990690938B
:1045D0009706809396068F8198859093990680938D
:1045E0009806809159068F5F809359060E94D328C0
:1045F00020915B0630915C0689859A858217930726
:1046000008F41FC1E0919606F091970680818823F7
:1046100039F48FEF9FEF90935C0680935B0611C196
:10462000E0919606F09197060580F681E02D86814F
:1046300097819F878E87EE85FF85828193819D87F5
:104640008C8729853A858C859D852817390738F40C
:104650008C859D8590935C0680935B06F2C0EE8509
:10466000FF85828593859E838D83EE85FF85A4815A
:10467000B581EE85FF858681978115969C938E93F3
:104680001497EE85FF85A681B781EE85FF8584812D
:10469000958113969C938E931297ED81FE812181D3
:1046A00032818E859F8502962817390741F4EE8561
:1046B000FF8586819781ED81FE8192838183EE85DE
:1046C000FF8513861286ED81FE8180818150ED8108
:1046D000FE818083EE85FF85848995890097D9F1D5
:1046E000EE85FF85848995899C838B83EE85FF8584
:1046F000A685B785EE85FF858089918915969C935F
:104700008E931497EE85FF85A089B189EE85FF858C
:104710008685978513969C938E931297EB81FC81E7
:10472000218132818E859F850C962817390741F4A7
:10473000EE85FF8580899189EB81FC81928381835D
:10474000EE85FF85158A148AEB81FC81808181507A
:10475000EB81FC818083EE85FF85968980915406EC
:10476000891728F4EE85FF85868980935406EE85A7
:10477000FF858689282F30E0C901880F991F880F8F
:10478000991F880F991F820F931FFC01E05AF94F60
:10479000818192819A838983EE85FF8589819A81BF
:1047A00095838483E981FA8184819581EE85FF85F3
:1047B00097838683E981FA810480F581E02D8E85D7
:1047C0009F850296938382838E859F850296E981D9
:1047D000FA8195838483EE85FF858689282F30E0D2
:1047E000C901880F991F880F991F880F991F820F81
:1047F000931F805A994FEE85FF8593878287EE85B8
:10480000FF858689282F30E0C901880F991F880FFE
:10481000991F880F991F820F931FFC01E05AF94FCF
:1048200080818F5F8083EE85FF859689E0914E06BB
:10483000F0914F068689891708F0E4CE81E08B87D6
:10484000E1CEE0914E06F0914F068689282F30E0A8
:10485000C901880F991F880F991F880F991F820F10
:10486000931FFC01E05AF94F8081823010F081E003
:104870008B8780915806882361F081E08B8709C07F
:104880008091560690915706019690935706809313
:1048900056068B852F960FB6F894DEBF0FBECDBFA0
:1048A000CF91DF910895DF93CF9300D00F92CDB7D2
:1048B000DEB780915F06882321F081E0809358065F
:1048C00059C010925806809154068B8303C08B8187
:1048D00081508B838B81282F30E0C901880F991F6D
:1048E000880F991F880F991F820F931FFC01E05AB0
:1048F000F94F8081882359F38B81282F30E0C9013B
:10490000880F991F880F991F880F991F820F931F77
:10491000805A994F9A838983E981FA810180F281D3
:10492000E02D82819381E981FA8192838183E981FB
:10493000FA812181328189819A810396281739076A
:1049400059F4E981FA810180F281E02D828193811D
:10495000E981FA8192838183E981FA810180F28180
:10496000E02D8681978190934F0680934E068B8130
:10497000809354060F900F900F90CF91DF91089580
:10498000DF93CF9300D000D0CDB7DEB79A83898371
:104990007C836B8380914E0690914F069C01245F2F
:1049A0003F4F89819A81B9010E94660D8B819C815C
:1049B00061E00E94B3300F900F900F900F90CF9155
:1049C000DF910895DF93CF93CDB7DEB728970FB669
:1049D000F894DEBF0FBECDBF9C838B837E836D8337
:1049E00058874F83E0914E06F0914F068D819E814E
:1049F000906895878487EB81FC81818192819A837D
:104A00008983E0914E06F0914F0689819A819787BC
:104A10008687A0914E06B0914F06E981FA81848184
:104A2000958151969C938E935097E981FA810480E9
:104A3000F581E02D80914E0690914F060C96938360
:104A4000828380914E0690914F060C96E981FA81FF
:104A500095838483E0914E06F0914F068B819C8173
:104A6000958B848BEB81FC8180818F5FEB81FC8156
:104A700080838F81988561E00E94B33028960FB6BD
:104A8000F894DEBF0FBECDBFCF91DF910895DF93C5
:104A9000CF93CDB7DEB72D970FB6F894DEBF0FBE1C
:104AA000CDBF9D878C87EC85FD850580F681E02D47
:104AB000868197819B878A87EA85FB85848995898A
:104AC00098878F83EA85FB85A685B785EA85FB8570
:104AD0008089918915969C938E931497EA85FB851E
:104AE000A089B189EA85FB858685978513969C9375
:104AF0008E931297EF81F885218132818A859B857B
:104B00000C962817390741F4EA85FB85808991893D
:104B1000EF81F88592838183EA85FB85158A148A63
:104B2000EF81F88580818150EF81F88580838091C5
:104B30005F06882309F0A4C0EA85FB8582859385FA
:104B40009E838D83EA85FB85A481B581EA85FB85FB
:104B50008681978115969C938E931497EA85FB85A1
:104B6000A681B781EA85FB858481958113969C9304
:104B70008E931297ED81FE81218132818A859B85FA
:104B800002962817390741F4EA85FB8586819781CB
:104B9000ED81FE8192838183EA85FB8513861286EF
:104BA000ED81FE8180818150ED81FE818083EA85E7
:104BB000FB85968980915406891728F4EA85FB8540
:104BC000868980935406EA85FB858689282F30E004
:104BD000C901880F991F880F991F880F991F820F8D
:104BE000931FFC01E05AF94F818192819C838B8352
:104BF000EA85FB858B819C8195838483EB81FC8195
:104C000084819581EA85FB8597838683EB81FC818E
:104C10000480F581E02D8A859B85029693838283AB
:104C20008A859B850296EB81FC8195838483EA8546
:104C3000FB858689282F30E0C901880F991F880FCE
:104C4000991F880F991F820F931F805A994FEA85E9
:104C5000FB8593878287EA85FB858689282F30E04C
:104C6000C901880F991F880F991F880F991F820FFC
:104C7000931FFC01E05AF94F80818F5F808330C021
:104C800080919B0690919C069A838983EA85FB8597
:104C900089819A8197878687E981FA8184819581C4
:104CA000EA85FB85918B808BE981FA810480F5810F
:104CB000E02D8A859B850C96938382838A859B85CC
:104CC0000C96E981FA8195838483EA85FB858AE9DC
:104CD00096E0958B848B80919A068F5F80939A06DD
:104CE000EA85FB859689E0914E06F0914F0686890C
:104CF000891730F481E0898781E08093580601C0EC
:104D0000198689852D960FB6F894DEBF0FBECDBFEC
:104D1000CF91DF910895DF93CF93CDB7DEB72C9776
:104D20000FB6F894DEBF0FBECDBF9A8789877C8708
:104D30006B878B859C859068E985FA859183808354
:104D4000E985FA858681978198878F83E985FA8539
:104D5000808591859E838D83E985FA85A281B381C3
:104D6000E985FA858481958115969C938E93149795
:104D7000E985FA85A481B581E985FA8582819381E7
:104D800013969C938E931297ED81FE81218132813F
:104D900089859A852817390741F4E985FA85848140
:104DA0009581ED81FE8192838183E985FA85118663
:104DB0001086ED81FE8180818150ED81FE818083AE
:104DC000EF81F885828593859C838B83EF81F885BD
:104DD000A481B581EF81F8858681978115969C9392
:104DE0008E931497EF81F885A681B781EF81F885BE
:104DF0008481958113969C938E931297EB81FC810D
:104E0000218132818F81988502962817390741F4D4
:104E1000EF81F88586819781EB81FC819283818384
:104E2000EF81F88513861286EB81FC8180818150A9
:104E3000EB81FC818083EF81F8859689809154060F
:104E4000891728F4EF81F885868980935406EF81CD
:104E5000F8858689282F30E0C901880F991F880FAF
:104E6000991F880F991F820F931FFC01E05AF94F79
:104E7000818192819A838983EF81F88589819A81E2
:104E800095838483E981FA8184819581EF81F88516
:104E900097838683E981FA810480F581E02D8F81F3
:104EA00098850296938382838F8198850296E98103
:104EB000FA8195838483EF81F8858689282F30E0F5
:104EC000C901880F991F880F991F880F991F820F9A
:104ED000931F805A994FEF81F88593878287EF81DE
:104EE000F8858689282F30E0C901880F991F880F1F
:104EF000991F880F991F820F931FFC01E05AF94FE9
:104F000080818F5F8083EF81F8859689E0914E06DE
:104F1000F0914F068689891718F481E0809358062E
:104F20002C960FB6F894DEBF0FBECDBFCF91DF91A8
:104F30000895DF93CF9300D0CDB7DEB79A838983EE
:104F40000FB6F8940F9280915906E981FA81808317
:104F50008091520690915306E981FA819283818370
:104F60000F900FBE0F900F90CF91DF910895DF93B8
:104F7000CF9300D0CDB7DEB79A838983809159064D
:104F8000E981FA8180838091520690915306E981EC
:104F9000FA81928381830F900F90CF91DF910895D2
:104FA000DF93CF93CDB7DEB729970FB6F894DEBF66
:104FB0000FBECDBF9F838E83798768870FB6F89425
:104FC0000F9280915206909153069C838B83EE81C1
:104FD000FF81218132818B819C81821B930B9A837B
:104FE0008983EE81FF81908180915906981781F025
:104FF000EE81FF81218132818B819C818217930711
:1050000038F081E08D83E885F9851182108223C014
:10501000E885F9852081318189819A8182179307FA
:10502000A0F4E885F9852081318189819A81A901DF
:10503000481B590BCA01E885F985918380838E81CD
:105040009F810E94B7271D8206C0E885F9851182DD
:10505000108281E08D830F900FBE8D8129960FB64F
:10506000F894DEBF0FBECDBFCF91DF910895DF93DF
:10507000CF93CDB7DEB781E080935806CF91DF9113
:105080000895DF93CF9300D0CDB7DEB79A8389839D
:105090000E948E28809160068230D0F30E948E0894
:1050A000F7CFDF93CF930F92CDB7DEB7198213C03E
:1050B0008981282F30E0C901880F991F880F991F17
:1050C000880F991F820F931F805A994F0E94E80CF6
:1050D00089818F5F89838981843050F384E896E0E9
:1050E0000E94E80C8DE896E00E94E80C8AE996E0C0
:1050F0000E94E80C83EA96E00E94E80C84E896E0BF
:1051000090939706809396068DE896E09093990683
:10511000809398060F90CF91DF910895DF93CF93FE
:1051200000D0CDB7DEB720C00FB6F8940F92E09153
:10513000A806F091A906868197819A83898389813F
:105140009A8102960E94D20D8091510681508093DF
:105150005106809150068150809350060F900FBEEB
:1051600089819A810E94BD28809150068823E1F6AA
:105170000F900F90CF91DF910895DF93CF9300D0E0
:10518000CDB7DEB79A838983E981FA818789908DCB
:105190000E94A90689819A810E94A9060F900F900A
:1051A000CF91DF910895DF93CF93CDB7DEB7E09134
:1051B0009606F09197068081882339F48FEF9FEF50
:1051C00090935C0680935B060DC0E0919606F0918B
:1051D00097060580F681E02D8081918190935C0691
:1051E00080935B06CF91DF910895DF93CF9300D03A
:1051F000CDB7DEB780914E0690914F069A83898392
:1052000089819A810F900F90CF91DF910895DF935C
:10521000CF9300D0CDB7DEB7E0914E06F0914F06A8
:10522000848595859A838983A0914E06B0914F0617
:10523000E0914E06F0914F068689282F30E084E0F9
:1052400090E0821B930B1D969C938E931C978981F3
:105250009A810F900F90CF91DF910895DF93CF93B4
:10526000CDB7DEB728970FB6F894DEBF0FBECDBF1F
:105270008D836E8358874F830FB6F8940F922091D9
:105280004E0630914F068D81882F90E0880F991F30
:10529000880F991F820F931FFC01B1968081918125
:1052A000A281B3810097A105B105C1F420914E06FA
:1052B00030914F068D81882F90E0820F931FFC0163
:1052C000B59681E080838F819885009739F08F8132
:1052D000988561E00E94B3300E948E080F900FBE47
:1052E0000FB6F8940F9220914E0630914F068D81A3
:1052F000882F90E0880F991F880F991F820F931FA6
:10530000FC01B19680819181A281B38189839A83C6
:10531000AB83BC8389819A81AB81BC810097A10555
:10532000B105A9F18E818823A1F020914E0630911C
:105330004F068D81882F90E0880F991F880F991F45
:10534000820F931FFC01B196108211821282138288
:105350001EC0E0914E06F0914F068D81682F70E0DF
:1053600089819A81AB81BC819C01AD012150304083
:1053700040405040CB01880F991F880F991F8E0F16
:105380009F1FFC01B1962083318342835383209178
:105390004E0630914F068D81882F90E0820F931F2B
:1053A000FC01B59610820F900FBE89819A81AB8166
:1053B000BC81BC01CD0128960FB6F894DEBF0FBEAC
:1053C000CDBFCF91DF910895CF92DF92EF92FF9200
:1053D0000F931F93DF93CF93CDB7DEB72E970FB602
:1053E000F894DEBF0FBECDBF8A834B835C836D8391
:1053F0007E830F83188729873A87FC86EB86DE86B3
:10540000CD860FB6F8940F9220914E0630914F063C
:105410008A81882F90E0820F931FFC01B5968081CE
:10542000823009F447C060914E0670914F068A8120
:10543000082F10E08A81882F90E0880F991F880F2D
:10544000991F860F971FFC01B196208131814281FF
:1054500053818B819C81AD81BE8180959095A09573
:10546000B095282339234A235B23C801880F991F4D
:10547000880F991F860F971FFC01B19620833183F7
:105480004283538320914E0630914F068A81882FA4
:1054900090E0820F931FFC01B59681E080838D859B
:1054A0009E85009739F08D859E8561E00E94B3301E
:1054B0000E948E080F900FBE0FB6F8940F928B8546
:1054C0009C850097C9F020914E0630914F068A8145
:1054D000882F90E0880F991F880F991F820F931FC4
:1054E000FC01B19680819181A281B381EB85FC851D
:1054F00080839183A283B38320914E0630914F061F
:105500008A81882F90E0820F931FFC01B5968081DD
:10551000823011F0198231C060914E0670914F06B1
:105520008A81082F10E08A81882F90E0880F991FC8
:10553000880F991F860F971FFC01B196208131813A
:10554000428153818F819885A985BA8580959095F0
:10555000A095B095282339234A235B23C801880FDF
:10556000991F880F991F860F971FFC01B196208302
:1055700031834283538381E0898320914E063091A9
:105580004F068A81882F90E0820F931FFC01B59609
:1055900010820F900FBE89812E960FB6F894DEBF51
:1055A0000FBECDBFCF91DF911F910F91FF90EF9074
:1055B000DF90CF900895EF92FF920F931F93DF93A8
:1055C000CF93CDB7DEB764970FB6F894DEBF0FBEAA
:1055D000CDBF9A8789876B872C873D874E875F87EA
:1055E000088BFA8AE98A81E08E8389859A85988773
:1055F0008F830FB6F8940F9289899A890097B9F032
:105600008B85882F90E02F813885880F991F880F10
:10561000991F820F931FFC01B19680819181A28115
:10562000B381E989FA8980839183A283B3838B85CF
:10563000282F30E08F819885820F931FFC01B5964B
:1056400080818D838B85282F30E08F819885820F14
:10565000931FFC01B59682E080838889282F30E073
:105660003C8B2B8B8B899C898230910509F446C039
:105670002B893C892330310534F48B899C89813016
:10568000910571F093C02B893C892330310509F4D1
:105690005DC08B899C898430910509F46DC086C0FA
:1056A0008B85082F10E08B85882F90E02F8138851F
:1056B000880F991F880F991F820F931FFC01B196C5
:1056C00020813181428153818C859D85AE85BF8546
:1056D000BA01A901482B592B6A2B7B2B2F813885C6
:1056E000C801880F991F880F991F820F931FFC0113
:1056F000B196408351836283738358C08B85082F92
:1057000010E02F813885C801880F991F880F991FD5
:10571000820F931FFC01B19680819181A281B38198
:10572000AC01BD014F5F5F4F6F4F7F4F2F813885B9
:10573000C801880F991F880F991F820F931FFC01C2
:10574000B196408351836283738330C08B85882FE9
:1057500090E02F813885880F991F880F991F820F3D
:10576000931FFC01B1968C859D85AE85BF85808396
:105770009183A283B3831AC08D818230B1F08B856F
:10578000882F90E02F813885880F991F880F991FE7
:10579000820F931FFC01B1968C859D85AE85BF85D8
:1057A00080839183A283B38301C01E828D81813067
:1057B00009F0AFC0EF81F885828593859C838B8348
:1057C000EF81F885A481B581EF81F8858681978185
:1057D00015969C938E931497EF81F885A681B781D7
:1057E000EF81F8858481958113969C938E9312970F
:1057F000EB81FC81218132818F8198850296281767
:10580000390741F4EF81F88586819781EB81FC812E
:1058100092838183EF81F88513861286EB81FC8168
:1058200080818150EB81FC818083EF81F8859689AE
:1058300080915406891728F4EF81F8858689809332
:105840005406EF81F8858689282F30E0C901880F3A
:10585000991F880F991F880F991F820F931FFC01B2
:10586000E05AF94F818192819A838983EF81F8858B
:1058700089819A8195838483E981FA8184819581E4
:10588000EF81F88597838683E981FA810480F58129
:10589000E02D8F8198850296938382838F819885EE
:1058A0000296E981FA8195838483EF81F885868960
:1058B000282F30E0C901880F991F880F991F880F82
:1058C000991F820F931F805A994FEF81F885938714
:1058D0008287EF81F8858689282F30E0C901880FFB
:1058E000991F880F991F880F991F820F931FFC0122
:1058F000E05AF94F80818F5F8083EF81F885968928
:10590000E0914E06F0914F068689891710F40E94A7
:105910008E080F900FBE8E8164960FB6F894DEBF8E
:105920000FBECDBFCF91DF911F910F91FF90EF90F0
:105930000895CF92DF92EF92FF920F931F93DF9320
:10594000CF93CDB7DEB769970FB6F894DEBF0FBE21
:10595000CDBF9D878C876E872F87388B498B5A8B5D
:105960000B8BFD8AEC8ADF8ACE8A81E088878C8562
:105970009D859B878A871F828C899D890097B9F0B6
:105980008E85882F90E02A853B85880F991F880F88
:10599000991F820F931FFC01B19680819181A28192
:1059A000B381EC89FD8980839183A283B3838E8543
:1059B000282F30E08A859B85820F931FFC01B596C6
:1059C000808189878E85282F30E08A859B85820F8C
:1059D000931FFC01B59682E080838B89282F30E0ED
:1059E000398F288F888D998D8230910509F446C0B2
:1059F000288D398D2330310534F4888D998D81308F
:105A0000910571F093C0288D398D2330310509F44B
:105A10005DC0888D998D8430910509F46DC086C074
:105A20008E85082F10E08E85882F90E02A853B8593
:105A3000880F991F880F991F820F931FFC01B19641
:105A400020813181428153818F859889A989BA89C2
:105A5000BA01A901482B592B6A2B7B2B2A853B8540
:105A6000C801880F991F880F991F820F931FFC018F
:105A7000B196408351836283738358C08E85082F0B
:105A800010E02A853B85C801880F991F880F991F50
:105A9000820F931FFC01B19680819181A281B38115
:105AA000AC01BD014F5F5F4F6F4F7F4F2A853B8534
:105AB000C801880F991F880F991F820F931FFC013F
:105AC000B196408351836283738330C08E85882F63
:105AD00090E02A853B85880F991F880F991F820FB8
